:020000040800F2
:10000000D00F0020491800082D180008000000003B
:100010002D1800082D1800082D1800082D180008AC
:100020002D1800082D1800082D18000879AD0008BB
:100030002D1800082D18000845AD0008711500089E
:100040002D1800082D1800082D1800082D1800087C
:100050002D1800082D180008791400082D18000824
:100060002D1800082D1800082D1800082D1800085C
:100070002D1800082D1800082D1800082D1800084C
:100080002D1800082D1800082D1800082D1800083C
:100090002D1800082D1800082D1800082D1800082C
:1000A0002D1800082D1800082D1800082D1800081C
:1000B0002D1800082D1800082D1800082D1800080C
:1000C0002D1800082D1800082D1800082D180008FC
:1000D0002D1800082D1800082D1800082D180008EC
:1000E0002D1800082D1800082D1800082D180008DC
:1000F0002D1800082D1800082D1800082D180008CC
:100100002D1800082D1800082D1800082D180008BB
:100110002D1800082D1800082D1800082D180008AB
:100120002D1800082D1800082D1800082D1800089B
:100130002D1800082D180008000000002D180008D8
:100140002D1800082D1800082D1800082D1800087B
:040150002D1800085E
:100154002DE9F04184B000F085FF00F04DFC08F07B
:100164004DFB01F091FA40F68833C2F20003DB79CB
:1001740013F0200F00F0A78072B64FF03D0008F096
:10018400DFFC40F24400C2F2000009F0E5FB4AF64D
:100194007C50C0F6000009F051FE08F0A7FD62B6DD
:1001A40001F05EFA40F68833C2F20003DB7913F003
:1001B400200F00F0888072B64FF03D0008F0C0FCBC
:1001C400614809F0C9FB614809F038FE08F08EFD6A
:1001D40062B601F045FA40F68833C2F20003DB79D7
:1001E40013F0200F6FD072B64FF03D0008F0A8FC5A
:1001F400574809F0B1FB574809F020FE08F076FD96
:1002040062B601F02DFA40F68833C2F20003DB79BE
:1002140013F0200F57D072B64FF03D0008F090FC59
:100224004D4809F099FB4D4809F008FE08F05EFDC1
:1002340062B601F015FA40F68833C2F20003DB79A6
:1002440013F0200F3FD072B64FF03D0008F078FC59
:10025400434809F081FB434809F0F0FD08F046FDEE
:1002640062B601F0FDF940F68833C2F20003DB798F
:1002740013F0200F27D072B64FF03D0008F060FC59
:10028400394809F069FB394809F0D8FD08F02EFD1A
:1002940062B601F0E5F940F68833C2F20003DB7977
:1002A40013F0200F0FD072B64FF03D0008F048FC59
:1002B4002F4809F051FB2F4809F0C0FD08F016FD46
:1002C40062B601F0CDF940F24405C2F2000505F131
:1002D400C8004FF0080107F0FDFF28464FF0500119
:1002E4004FF0080207F0B2FF234F05F164054FF009
:1002F400000426464FF0050804F10104E4B257F85F
:10030400040F00960196029621462A46434608F0B9
:1003140091FA05F11405052CEED14AF67C63C0F67A
:10032400000318684FF000030093019302934FF009
:100334000601054A4FF0050308F07CFA08F066FA56
:1003440004B0BDE8F08100BF940000208CAD00082B
:10035400A80000209CAD0008BC000020B0AD00083F
:10036400D0000020C4AD0008E4000020D8AD00088F
:10037400F8000020ECAD00087CAF00082DE9F04146
:10038400804640F68833C2F20003DB7913F0200F75
:1003940015D072B64FF03D0008F0D2FB40F22C109D
:1003A400C2F2000009F0D8FA4AF60060C0F6000074
:1003B40009F044FD08F09AFC62B601F051F940F6E8
:1003C4008833C2F20003DB7913F0400F48D072B6D1
:1003D4004FF03E0008F0B4FB47F6B560C0F60000ED
:1003E40009F0BAFA7E4809F029FD08F07FFC62B6EC
:1003F40001F036F940F68833C2F20003DB7913F0DA
:10040400400F2DD072B64FF03E0008F099FB40F239
:100414008130C0F6000009F09FFA724809F00EFD21
:1004240008F064FC62B601F01BF940F68833C2F2AE
:100434000003DB7913F0400F12D072B64FF03E0088
:1004440008F07EFB40F20560C0F6000009F084FA73
:10045400654809F0F3FC08F049FC62B601F000F9C4
:1004640040F68833C2F20003DB7913F0100F00F07A
:10047400888072B64FF03C0008F062FB4FF0050034
:1004840009F062F94FF0000009F066FA574809F0E4
:10049400D5FC08F02BFC62B601F0E2F840F6883394
:1004A400C2F20003DB7913F0100F6AD072B64FF07A
:1004B4003C0008F045FB4FF0040009F045F94FF00B
:1004C400000009F049FA4A4809F0B8FC08F00EFCAB
:1004D40062B601F0C5F840F68833C2F20003DB7956
:1004E40013F0100F4DD072B64FF03C0008F028FB0B
:1004F4004FF0060009F028F94FF0000009F02CFA3B
:100504003C4809F09BFC08F0F1FB62B601F0A8F846
:1005140040F68833C2F20003DB7913F0100F30D0B9
:1005240072B64FF03C0008F00BFB4FF0070009F0E7
:100534000BF94FF0000009F00FFA2F4809F07EFC88
:1005440008F0D4FB62B601F08BF840F68833C2F2AF
:100554000003DB7913F0100F13D072B64FF03C0098
:1005640008F0EEFA4FF0090009F0EEF8404609F001
:10057400F3F9224809F062FC08F0B8FB62B601F016
:100584006FF840464FF0050107F01AFD40464FF062
:10059400060107F015FD40464FF0070107F010FD76
:1005A40008F11B054FF0000426464CF28847C0F6BC
:1005B400000705F8016F6E712046394600F020FFF0
:1005C40004F10104E4B2052CF3D140F20563C0F652
:1005D4000003C8F804304FF00200BDE8F08100BF0A
:1005E4000CAE000818AE000828AE000838AE0008AB
:1005F40044AE00084CAE000858AE000868AE0008CF
:100604002DE9F04705460B8803F1FF33082B00F270
:100614004281DFE813F00900400140012E019500FA
:100624003701400140014A0000F121064FF0000467
:100634004CF6CD47CCF6CC474FF0010A4CF2944926
:10064400C0F600095FFA84F816F8013B04F10104CE
:100654002BB3A7FB04134FEA930303EB8303E31ABF
:10066400DBB2EA18127FD2B916F8062CBAB9EB1825
:1006740083F81CA006F806AC4FF006004FF0040106
:1006840007F084FD80F80480294607F02BFE4FF024
:10069400000306F8013C4046494600F0B1FE052C33
:1006A400D0D14FF00000BDE8F0870C79042C03D8BA
:1006B400031993F8213023B17F484FF08F0100F0E4
:1006C4005FFD20464CF2A041C0F6000100F098FE08
:1006D40004F101034CF6CD42CCF6CC42A2FB03124A
:1006E4004FEA920202EB82029B1ADBB2EA18127FF3
:1006F400EAB92A19127FD2B9EB184FF001021A771E
:100704002B191A774FF006004FF0040107F03EFD55
:100714000471294607F0E6FD20464CF29441C0F6E8
:10072400000100F06DFE4FF00000BDE8F0872D19C8
:100734004FF0010385F821304FF00000BDE8F08749
:100744000C79042C03D8031993F8213023B15A48A7
:100754004FF0AC0100F014FD20464CF28841C0F685
:10076400000100F04DFE04F101034CF6CD46CCF639
:10077400CC46A6FB03264FEA960606EB86069E1B8E
:10078400F6B22B191B7F012B03D1AB191B7F012B55
:1007940004D049484FF0B10100F0F2FCAA194FF01F
:1007A400000313772A19137704F104034CF6CD4799
:1007B400CCF6CC47A7FB03174FEA970707EB87074D
:1007C400DF1BFFB2EB1993F82130EBB1EB191B7F60
:1007D400D3B914464FF001022277EB191A774FF080
:1007E400000283F821204FF006004FF0040107F0C7
:1007F400CDFC0771294607F075FD38464CF294414B
:10080400C0F6000100F0FCFDAB1993F82130002B79
:100814004AD006F101034CF6CD42CCF6CC42A2FB01
:1008240003124FEA920202EB82029B1ADBB2EA182D
:10083400127F002A3CD1AA194FF001011177EB185D
:1008440019774FF0000482F821404FF006004FF072
:10085400040107F09BFC0671294607F043FD30466E
:100864004CF29441C0F6000100F0CAFD2046BDE8F8
:10087400F08711484FF0D00100F082FC4FF00000E7
:10088400BDE8F08740F60113C0F6000343604FF063
:100894000200BDE8F08740F6C103C0F600034360E0
:1008A4004FF00300BDE8F0874FF00000BDE8F0878B
:1008B4004FF00000BDE8F08774AE000808B50B885F
:1008C400042B08D0072B0ED14FF0000000F076FC6B
:1008D4004FF0000008BD08484FF0640100F050FCE0
:1008E4004FF0000008BD47F6B563C0F6000343604F
:1008F4004FF0030008BD00BF74AE000870B5044695
:100904000B8803F1FF33082B6CD8DFE803F0050CE8
:100914006B6B36136B6B1B004FF0010000F036FC61
:100924004FF0000070BD4FF0000000F02FFC4FF0BE
:10093400000070BD40F20563C0F6000343604FF051
:10094400020070BD0D79042D03D8431993F82130AA
:1009540023B128484FF0F90100F012FC64194FF05C
:10096400010384F8213028464CF2A041C0F600016E
:1009740000F046FD4FF0000070BD0D79042D03D842
:10098400431993F8213023B11A4840F2051100F0BD
:10099400F7FB28464CF28841C0F6000100F030FD18
:1009A40005F101034CF6CD46CCF6CC46A6FB032656
:1009B4004FEA960606EB86069E1BF6B263191B7F6A
:1009C400012B03D1A3191B7F012B04D009484FF439
:1009D400857100F0D5FBA6194FF00000307764193B
:1009E400207770BD40F6C103C0F6000343604FF0AA
:1009F400030070BD74AE000840F22C13C2F2000371
:100A040047F6B562C0F600021A6040F28132C0F6C1
:100A140000025A604FF000021A7783F821205A77B7
:100A240083F822209A7783F82320DA7783F8242026
:100A340083F8202083F82520704700BF10B50446B2
:100A440040F25413C2F200031B78002B40F06B8178
:100A540040F25413C2F200034FF001021A7040F640
:100A64008833C2F20003DB7913F0200F00F0EF802B
:100A740072B64FF03D0008F063F8CD4808F06CFF03
:100A84004AF68060C0F6000009F0D8F908F02EF9A3
:100A940062B600F0E5FD40F68833C2F20003DB796C
:100AA40013F0200F00F0D38072B64FF03D0008F031
:100AB40047F8C04808F050FFBF4809F0BFF908F0F4
:100AC40015F962B600F0CCFD40F68833C2F200039B
:100AD400DB7913F0200F00F0BA8072B64FF03D00BE
:100AE40008F02EF8B54808F037FFB54809F0A6F924
:100AF40008F0FCF862B600F0B3FD40F68833C2F2A9
:100B04000003DB7913F0200F00F0A18072B64FF0E0
:100B14003D0008F015F8AB4808F01EFFAA4809F09C
:100B24008DF908F0E3F862B600F09AFD40F68833D8
:100B3400C2F20003DB7913F0200F00F0888072B654
:100B44004FF03D0007F0FCFFA04808F005FFA04867
:100B540009F074F908F0CAF862B600F081FD40F6B5
:100B64008833C2F20003DB7913F0200F6FD072B622
:100B74004FF03D0007F0E4FF964808F0EDFE96487C
:100B840009F05CF908F0B2F862B600F069FD40F6CD
:100B94008833C2F20003DB7913F0200F57D072B60A
:100BA4004FF03D0007F0CCFF8C4808F0D5FE8C4890
:100BB40009F044F908F09AF862B600F051FD40F6E5
:100BC4008833C2F20003DB7913F0200F3FD072B6F2
:100BD4004FF03D0007F0B4FF824808F0BDFE8248A4
:100BE40009F02CF908F082F862B600F039FD40F6FD
:100BF4008833C2F20003DB7913F0200F27D072B6DA
:100C04004FF03D0007F09CFF784808F0A5FE7848B7
:100C140009F014F908F06AF862B600F021FD40F614
:100C24008833C2F20003DB7913F0200F0FD072B6C1
:100C34004FF03D0007F084FF6E4808F08DFE6E48CB
:100C440009F0FCF808F052F862B600F009FD40F62D
:100C54008833C2F20003DB7913F0400F63D072B61D
:100C64004FF03E0007F06CFF40F64120C0F6000054
:100C740008F072FE614809F0E1F808F037F862B64E
:100C840000F0EEFC40F68833C2F20003DB7913F087
:100C9400400F48D072B64FF03E0007F051FF40F6C7
:100CA400F560C0F6000008F057FE554809F0C6F894
:100CB40008F01CF862B600F0D3FC40F68833C2F2A8
:100CC4000003DB7913F0400F2DD072B64FF03E00D5
:100CD40007F036FF40F6A170C0F6000008F03CFEB5
:100CE400484809F0ABF808F001F862B600F0B8FC27
:100CF40040F68833C2F20003DB7913F0400F12D0C0
:100D040072B64FF03E0007F01BFF40F61960C0F6C4
:100D1400000008F021FE3C4809F090F807F0E6FFD7
:100D240062B600F09DFC40F68833C2F20003DB7922
:100D340013F0100F2FD072B64FF03C0007F000FFF5
:100D44004FF0090008F000FD204608F005FE2F488A
:100D540009F074F807F0CAFF62B600F081FC40F6AF
:100D64008833C2F20003DB7913F0100F13D072B68C
:100D74004FF03C0007F0E4FE4FF00A0008F0E4FCFA
:100D8400204608F0E9FD224809F058F807F0AEFFC4
:100D940062B600F065FC20464FF0040107F010F93C
:100DA40040F6F563C0F6000363604FF0020010BD27
:100DB40058010020740100208CAE0008840100203A
:100DC400A0AE0008A0010020ACAE0008B0010020D5
:100DD400C0AE0008CC010020CCAE0008DC0100202D
:100DE400E0AE0008F8010020ECAE00080802002084
:100DF40000AF0008240200200CAF000820AF000858
:100E040030AF000840AF000850AF000860AF0008E2
:100E14006CAF000838B504460B8803F1FF33092B87
:100E240056D8DFE803F00520553F3F555555553753
:100E34004FF00005458500F0ABF948F21F53C5F2A9
:100E4400EB13A3FB00234FEA13134FF0320202FB10
:100E5400130202F1320204F11C00214692B207F09F
:100E64006BFC284638BD4FF006004FF0050107F033
:100E74008DF91D4AA21A4FEAA20248F6A333CBF613
:100E84002E2303FB02F30371214607F02BFA4FF0E4
:100E9400000038BD40F6F563C0F6000343604FF030
:100EA400020038BD104BC41A4FEAA40448F6A33319
:100EB400CBF62E2303FB04F30A79DBB29A420FD15B
:100EC4000A484FF0C10100F05BF94FF0000038BD53
:100ED40047F6B563C0F6000343604FF0030038BD26
:100EE4004FF0000038BD00BF5801002078AF000863
:100EF40038B504460B8803F1FF33092B3FD8DFE8EC
:100F040003F0053E3E28283E3E3E3E204FF00005BD
:100F1400458500F03DF948F21F53C5F2EB13A3FBDE
:100F240000234FEA13134FF0320202FB130202F1C3
:100F3400190204F11C00214692B207F0FDFB284679
:100F440038BD40F6A173C0F6000343604FF00200C1
:100F540038BD104BC41A4FEAA40448F6A333CBF6A9
:100F64002E2303FB04F30A79DBB29A420FD10A4819
:100F74004FF0760100F004F94FF0000038BD47F659
:100F8400B563C0F6000343604FF0030038BD4FF073
:100F9400000038BD5801002078AF000810B50446A1
:100FA4000B88042B20D0052B34D0012B48D14FF0D3
:100FB40006004FF0090107F0E9F80146274AA21A92
:100FC4004FEAA20248F6A333CBF62E2303FB02F327
:100FD40003714AF67C63C0F600031868224606F0E3
:100FE4006BFF4FF0000010BD1C4A821A4FEAA202A8
:100FF40048F6A333CBF62E2303FB02F30A79DBB2C4
:101004009A4225D140F61963C0F6000343604FF0BD
:10101400020010BD114BC41A4FEAA40448F6A333CE
:10102400CBF62E2303FB04F30A79DBB29A4212D1E6
:101034000B484FF09B0100F0A3F84FF0000010BDE7
:1010440047F6B563C0F6000343604FF0030010BDDC
:101054004FF0040010BD4FF0000010BD58010020F7
:1010640078AF0008F8B54FF000040D4D47F6B566AB
:10107400C0F6000640F64127C0F600074FF02C03E7
:1010840003FB04F3E818EE50476000F11C004FF036
:101094000A0107F039FB04F10104052CEED1F8BD77
:1010A4005801002010B582B04AF6C873C0F6000398
:1010B4001A6848F21F53C5F2EB13A3FB02134FEA5D
:1010C4001313B3F1807F16D223F07F4303F1FF3271
:1010D4004EF21003CEF200035A604FF46D42CEF28A
:1010E40000024FF0F00182F823104FF000029A60E2
:1010F4004FF007021A604FF006038DF804304FF0EA
:1011040000048DF805408DF806404FF001038DF87A
:10111400073001A802F0ACFB4FF46D43CEF200039C
:101124004FF0100283F823204FF46143CEF2000302
:1011340083F8064302B010BD704700BF08B572B60D
:101144004FF0030000F0A0FC4FF0030000F0ACFCF3
:1011540062B64FF48843C4F200031B8813F0800F77
:101164000DD072B608F0C8FE62B64FF6FF7398420F
:101174001FBFC0B24FF48843C4F20003988008BD77
:1011840072B6FEE708B5FFF7FBFF00BF704700BF6C
:1011940040F23423C2F20003186840F6CD52C0F284
:1011A400010202FB00F018604FEA1020704700BFF4
:1011B40040F23423C2F2000318607047704700BF46
:1011C4002DE9F04188B040F23426C2F2000606F15F
:1011D40004004FF4006107F067FC4FF400304FF057
:1011E400010105F0FDF84FF005004FF0010105F095
:1011F400E5F84FF008004FF0010104F0D3FB4FF085
:101204002008ADF81C804FF003038DF81E304FF01A
:1012140018078DF81F704FF4A054C4F2010420463F
:1012240007A904F017FB4FF04001ADF81C104FF074
:1012340004038DF81F30204607A904F00BFB4FF47C
:10124400E13303934FF00004ADF81040ADF81240C1
:10125400ADF81440ADF818404FF00803ADF816305F
:101264004FF48845C4F20005284603A906F012FC91
:10127400ADF80440ADF806404FF40071ADF8081025
:10128400ADF80A40284601A906F06AFC28464FF04A
:10129400010106F081FC4AF6C873C0F600031A681F
:1012A40048F21F53C5F2EB13A3FB02134FEA1313C7
:1012B400C6F80438C6F808384FF0FF0007F0FCFB06
:1012C4004FF00A0007F01AFC4FF00B0007F016FC71
:1012D4004FF00C0007F012FC4FF00D0007F00EFC6D
:1012E4004FF00E0007F00AFC4FF00F0007F006FC69
:1012F4004FF0100007F002FC4FF0110007F0FEFB66
:101304004FF0120007F0FAFB4FF0130007F0F6FB62
:101314004FF0140007F0F2FB4FF0150007F0EEFB5E
:101324004FF0160007F0EAFB4FF0170007F0E6FB5A
:10133400384607F0E3FB4FF0190007F0DFFB4FF0EE
:101344001A0007F0DBFB4FF01C0007F0D7FB4FF04F
:101354001D0007F0D3FB4FF01E0007F0CFFB404603
:1013640007F0CCFB4FF0210007F0C8FB4FF0220040
:1013740007F0C4FB4FF0230007F0C0FB4FF024003C
:1013840007F0BCFB4FF0250007F0B8FB4FF0270037
:1013940007F0B4FB4FF0280007F0B0FB4FF0290032
:1013A40007F0ACFB4FF02A0007F0A8FB4FF0340025
:1013B40007F0A4FB4FF0010008B0BDE8F08100BFC6
:1013C400704700BF4EF21003CEF200031B6813F403
:1013D400803F4EF21003CEF200039A6840F23423A9
:1013E400C2F2000307BFD3F80808C2EB0000D3F829
:1013F4000408D3F808381CBFC018C2EB00007047BB
:1014040038B504460D4600EB40014FEA01114FF098
:10141400780001F150012A7801F00EF840F6883383
:10142400C2F200031B7A13F0400F21D040F6B83308
:10143400C2F200031A683AB14AF68073C0F6000398
:1014440053F824309A4213D172B64FF0460007F095
:1014540077FBFFF7B7FF08F07FFA4FF01100214642
:1014640007F0DAFC284608F075FD07F03FFC62B689
:1014740038BD00BF684620F007018D4619B572B625
:1014840040F66C33C2F200031A7802F101021A70BA
:1014940040F68833C2F200035B7913F0020F17D0D1
:1014A4004FF0290007F04CFBFFF78CFF08F054FACB
:1014B40040F66C33C2F20003187808F0C1F840F229
:1014C4004003C2F20003187808F0BAF807F00EFCE3
:1014D40062B64FF48063C4F201034FF001025A6113
:1014E4004AF67C63C0F600031C684FF004004FF01A
:1014F400080106F04BFE014620464FF0000206F0BC
:10150400DBFC72B640F68833C2F200035B7913F059
:10151400040F17D04FF02A0007F012FBFFF752FF19
:1015240008F01AFA40F66C33C2F20003187808F097
:1015340087F840F24003C2F20003187808F080F8FC
:1015440007F0D4FB40F66C33C2F200031A7802F1C0
:10155400FF321A704EF60453CEF200034FF080525D
:101564001A6062B6BDE8194085467047684620F0A7
:1015740007018D4601B572B640F66C33C2F2000322
:101584001A7802F101021A7040F68833C2F200039D
:101594005B7913F0020F17D04FF0290007F0D0FA4F
:1015A400FFF710FF08F0D8F940F66C33C2F20003DD
:1015B400187808F045F840F24003C2F200031878A6
:1015C40008F03EF807F092FB62B64EF21003CEF23A
:1015D40000031B6840F23420C2F20000D0F8042853
:1015E400D0F80838D318C0F8083800F5006000F1C6
:1015F4000C0006F0FBFE72B640F68833C2F200031C
:101604005B7913F0040F17D04FF02A0007F098FA13
:10161400FFF7D8FE08F0A0F940F66C33C2F20003DD
:10162400187808F00DF840F24003C2F2000318786D
:1016340008F006F807F05AFB40F66C33C2F20003D8
:101644001A7802F1FF321A704EF60453CEF20003F8
:101654004FF080521A6062B6BDE80140854670477B
:1016640038B54FF6FF754FF48844C4F2000405E022
:10167400238813F0800FFBD0C0B2A08008F03CFC9C
:10168400A842F5D138BD00BF10B582B000F022F9F0
:101694004FF0000000F0D2F94FF0010000F0CEF955
:1016A4004FF0020000F0CAF94FF0030000F0C6F951
:1016B4004FF000048DF804404FF008038DF8053016
:1016C4004FF0010300938DF80630684603F012FAD8
:1016D40001F0C6F84FF6FF7000F0F4FE4FF2DE7032
:1016E40000F0DEFA204600F0CDFA204621464CF206
:1016F400AC42C0F6000200F0B3FE4FF018002146E1
:101704004CF2C442C0F6000200F0AAFE4FF03000D2
:1017140021464CF2DC42C0F6000200F0A1FE06F0C5
:10172400ADFC02464FF030004FF0E00100F098FEAF
:101734004FF6FF7000F0B4FA4FF0780021464CF2F7
:10174400F442C0F6000200F08BFE204600F0A8FA36
:101754004FF6E07000F096FA4FF0D80021464CF2B4
:10176400FC42C0F6000200F07BFE4FF01F0000F0C8
:1017740097FA4FF6FF7000F085FA4FF078004FF0BB
:1017840040014CF21452C0F6000200F069FE2046FB
:10179400FFF716FD38B94AF69470C0F600004FF012
:1017A4008101FFF7EDFC40F68833C2F20003DB79D8
:1017B40013F0200F0FD072B64FF03D0007F0C0F9C0
:1017C400064808F0C9F8064808F038FB07F08EFA16
:1017D40062B6FFF745FF02B010BD00BF400A00200B
:1017E4009CAF000808B54AF6B070C0F600004FF090
:1017F4002201FFF7C5FC4FF0000008BD08B54AF60A
:10180400B070C0F600004FF02801FFF7B9FC08BD26
:1018140008B54AF6B070C0F600004FF02D01FFF78E
:10182400AFFC4FF0000008BD684620F007018D466C
:1018340001B54CF22850C0F6000040F25111FFF7F8
:10184400A1FCFEE7684620F007018D4601B540F291
:101854000002C2F2000240F24403C2F200039A42C0
:1018640011D24CF25852C0F6000240F20003C2F208
:10187400000340F24400C2F2000052F8041B43F893
:10188400041B8342F9D340F24402C2F2000240F640
:10189400D033C2F200039A420AD213464FF0000139
:1018A40040F6D032C2F2000243F8041B9342FBD349
:1018B40009F010FAFEF74CFC4CF22850C0F6000078
:1018C4004FF4A671FFF75EFCBDE801408546704702
:1018D400704700BF82B04FF48053C4F202031A6809
:1018E40042F001021A6059684FF00002CFF2FF0281
:1018F4000A405A601A6822F0847222F480321A6014
:101904001A6822F480221A605A6822F4FE025A608D
:101914001A6822F0A0521A604FF47F029A604FF0C6
:101924000002DA62009201921A6842F480321A606C
:101934004FF48053C4F202031A6802F40032019295
:10194400009A02F101020092019A1AB9009AB2F5C2
:10195400A06FF1D14FF48053C4F202031B6813F457
:10196400003F14BF012300230193019B012B62D18B
:101974004FF40053C4F202031A6842F010021A60D2
:101984001A6822F003021A601A6842F002021A600E
:101994004FF48053C4F202035A685A605A685A607A
:1019A4005A6842F480625A60D96A4FF47042CFF6A2
:1019B400FE720A40DA62DA6A42F4823242F4117246
:1019C400DA621A6842F080621A604FF48053C4F2FB
:1019D40002031A6812F0006FFBD04FF48053C4F274
:1019E40002035A6822F47C125A605A6842F4E812DC
:1019F4005A601A6842F080721A604FF48053C4F23D
:101A040002031A6812F0007FFBD04FF48053C4F233
:101A140002035A6822F003025A605A6842F0020232
:101A24005A604FF48053C4F202035A6802F00C0265
:101A3400082AFAD100E0FEE702B0704730B583B05F
:101A440005464AF6D074C0F6000454F820004FF05E
:101A5400010104F0B3FC04EB4504248AADF804400E
:101A64004FF010038DF807304FF003038DF8063064
:101A740040F20003C2F2000353F8250001A903F069
:101A8400E9FE03B030BD00BF40F20002C2F2000222
:101A940052F820204AF6D073C0F6000303EB40034B
:101AA4001B8A1361704700BF40F20002C2F20002B9
:101AB40052F820204AF6D073C0F6000303EB40032B
:101AC4001B8A5361704700BF40F20002C2F2000259
:101AD40052F82020D1684AF6D073C0F6000303EB15
:101AE40040031B8A4B40D360704700BFF0B585B0FC
:101AF40005460F464AF6D074C0F600044FEA800645
:101B0400A319986940F001004FF0010104F056FC5C
:101B140004EB4504A48CADF80C404FF004038DF89D
:101B24000F3040F20003C2F200039E19306903A98A
:101B340003F090FE012F33D14AF6D074C0F60004AE
:101B440004EB450494F82C0094F8341003F062FF7D
:101B5400A38F01934FF000038DF808309D420CBF12
:101B640008230C238DF809304FF001048DF80A4046
:101B740001A802F0BFFF4AF6D073C0F6000303EBDE
:101B84004505B5F844308DF800304FF00F038DF85B
:101B940001308DF802308DF80340684601F068FE8C
:101BA40005B0F0BD08B540F20002C2F2000202EB3B
:101BB40080024AF6D073C0F6000303EB40031069B9
:101BC400998C03F0B1FE08BD30B583B004460D46D0
:101BD4004FF021004FF0010104F0F0FB5CB94FF02D
:101BE40008004FF0010103F0DDFE4FF400304FF028
:101BF400010104F0F5FB4FF02003ADF804304FF081
:101C040018038DF807304FF003038DF8063040F2C7
:101C14000003C2F2000303EB8404E06901A903F0AA
:101C240019FE4FF04003ADF804304FF004038DF873
:101C34000730E0690DEB030103F00CFE206A29462E
:101C440005F028FF206A4FF0010105F0A5FF03B05D
:101C540030BD00BF84B001904FF000030393019A9C
:101C640048F2A063C0F2010303FB02F30393039B56
:101C740033B1039B03F1FF330393039B002BF8D190
:101C840004B0704782B0ADF80600BDF8062092B2E9
:101C940040F64423C2F200031A8002B0704700BF2A
:101CA40082B0ADF80600BDF8062092B240F22403DB
:101CB400C2F200031A8002B0704700BF70B5064636
:101CC4004FF47050C4F200004FEA162104F078FF7C
:101CD4004FF47054C4F200044FF0800520462946A6
:101CE40004F0D2FF0028F9D14FF47050C4F2000080
:101CF400F1B204F065FF4FF47054C4F200044FF0E5
:101D040080052046294604F0BFFF0028F9D170BDA4
:101D140000B583B04FF008004FF0010104F04EFB12
:101D24004FF00403ADF804304FF003038DF8063090
:101D34004FF010038DF807304FF44060C4F20100F7
:101D440001A903F087FD03B000BD00BF08B503F08F
:101D540003FE08BD38B504464FF44060C4F20100E8
:101D64004FF004014FF00002FFF7F0FF4FF4705002
:101D7400C4F20000214604F023FF4FF47054C4F26F
:101D840000044FF080052046294604F07DFF00281A
:101D9400F9D138BD70B506464FF07000FFF7DAFF91
:101DA4004FF47050C4F200004FF0000104F008FF3B
:101DB4004FF47054C4F200044FF0800520462946C5
:101DC40004F062FF0028F9D14FF47050C4F200000F
:101DD400314604F0F5FE4FF47054C4F200044FF0A1
:101DE40080052046294604F04FFF0028F9D14FF41E
:101DF4004060C4F201004FF004014FF00102FFF70C
:101E0400A5FF70BD08B54FF02200FFF7C3FF4FF0E8
:101E14007200FFF79FFF08BD70B50E46FFF7BAFFCB
:101E24004FF07200FFF796FF4FF47050C4F20000B9
:101E34004FEA162104F0C4FE4FF47054C4F20004B7
:101E44004FF080052046294604F01EFF0028F9D1F2
:101E54004FF47050C4F20000F1B204F0B1FE4FF43C
:101E64007054C4F200044FF080052046294604F063
:101E74000BFF0028F9D14FF44060C4F201004FF089
:101E840004014FF00102FFF761FF70BD08B54FF088
:101E940007004FF00001FFF7BFFF08BD08B54FF082
:101EA400070040F27311FFF7B7FF08BD08B54FF004
:101EB40010004FF00001FFF7AFFF4FF011004FF09B
:101EC4000001FFF7A9FF4FF012004FF00001FFF7E8
:101ED400A3FF4FF013004FF00001FFF79DFF4FF0F9
:101EE4001400FFF7B7FE4FF0100041F2B071FFF796
:101EF40093FF4FF0110040F23711FFF78DFF4FF0C1
:101F04000500FFF7A7FE4FF0120040F23911FFF76A
:101F140083FF4FF00500FFF79DFE4FF013004FF4D1
:101F2400E851FFF779FF4FF029004FF01301FFF755
:101F340073FF4FF00500FFF78DFE4FF0070040F2EE
:101F44007311FFF769FF08BD10B503460C464FF047
:101F540020001946FFF760FF4FF021002146FFF7EC
:101F64005BFF10BD70B504460D461E46904221BF6E
:101F7400431CC2EB0302502091B23CBF502000210D
:101F8400FFF74AFF4FF051002146FFF745FFB542E6
:101F940021BF6B1CC6EB03065220B1B23CBF5220DA
:101FA4000021FFF739FF4FF053002946FFF734FFB4
:101FB40020462946FFF7C8FF70BD00BF08B54FF0A3
:101FC400EF0040F23F114FF0F0024FF4A073FFF71F
:101FD400C9FF4FF0030041F21801FFF71DFF08BDD0
:101FE40010B50446FFF70EFF2046FFF767FE4FF4D7
:101FF4004060C4F201004FF004014FF00102FFF70A
:10200400A5FE10BD2DE9F04F85B000900F464FEAB4
:102014004203C3F103030193164680464FF00005C3
:1020240040F64424C2F20004009A02EB050A5FFA67
:102034008AFA1FFA86F909EB070B1FFA8BFB504645
:102044005946FFF781FF208880B2FFF7C9FFC9EB2B
:1020540007091FFA89F950464946FFF775FF20889A
:1020640080B2FFF7BDFF40465946FFF76DFF208859
:1020740080B2FFF7B5FF40464946FFF765FF208869
:1020840080B2FFF7ADFF5FFA86FB009B0BEB030A00
:102094005FFA8AFA1FFA85F909EB07039BB20393E7
:1020A40050461946FFF750FF208880B2FFF798FF8B
:1020B400C9EB07091FFA89F9CDF80890504649463B
:1020C400FFF742FF208880B2FFF78AFF009ACBEB2C
:1020D40002095FFA89F948460399FFF735FF20881A
:1020E40080B2FFF77DFF48460299FFF72DFF208855
:1020F40080B2FFF775FF019B002BBDBF03EB850387
:1021040006330193019AA1BF02F10A03C6EB05024B
:1021140003EB82020192A8BF06F1FF3605F1010527
:1021240008F1FF385FFA88F8AE42BFF47DAF05B01E
:10213400BDE8F08FF8B54FF47053C4F200031A8869
:1021440022F038024FEA02424FEA12421A801A88F9
:1021540092B242F008021A80FFF71CFE4FF073009F
:10216400FFF7F8FD4FF005074FF47054C4F2000474
:102174004FF080054FF0010620464FF0FF0104F0B8
:102184001FFD2046294604F07FFD0028F9D1204692
:10219400314604F079FD0028F9D0204604F012FD00
:1021A40007F1FF37FFB2002FE6D14FF47050C4F2AD
:1021B40000004FF0FF0104F003FD4FF47054C4F22B
:1021C40000044FF080052046294604F05DFD0028F8
:1021D400F9D14FF47054C4F200044FF001052046C5
:1021E400294604F051FD0028F9D04FF47054C4F28C
:1021F4000004204604F0E6FC064620464FF0FF01AA
:1022040004F0DEFC4FF47054C4F200044FF0800577
:102214002046294604F038FD0028F9D14FF47054C3
:10222400C4F200044FF001052046294604F02CFDB9
:102234000028F9D04FF47054C4F20004204604F08E
:10224400C1FC40EA0626B6B24FF44060C4F2010075
:102254004FF004014FF00102FFF778FD238823F0CB
:1022640038034FEA03434FEA134323803046F8BD53
:102274002DE9F84306464FF0000040F23F11FFF706
:1022840063FEFFF7BFFD4FF0000540F64428C2F29D
:10229400000840F22409C2F2000914E007FA04F22B
:1022A40073591A420CBFB9F80000B8F8000080B2A4
:1022B400FFF704FD04F10104202CEFD105F104051E
:1022C400B5F5165F04D04FF000044FF00107E5E7C1
:1022D4004FF44060C4F201004FF004014FF00102DA
:1022E400FFF734FDBDE8F8832DE9F843044688463A
:1022F40091461D46FFF728FE2DB14F46B9F1000F58
:1023040021D1BDE8F883FFF77DFD4E46B9F1000FFA
:102314000DD04FF0000440F64425C2F20005288891
:1023240080B2FFF7CBFC04F10104B442F7D34FF4BD
:102334004060C4F201004FF004014FF00102FFF7C6
:1023440005FDBDE8F8834FF0000540F64426C2F2CF
:102354000006308880B2FFF743FE04F10104E4B2C2
:1023640020464146FFF7F0FD05F10105BD42F0D3DB
:10237400BDE8F883F8B506460D4617461C461A46CE
:102384004FF00003FFF7B0FFB819C0B22946224648
:102394004FF00003FFF7A8FF304629463A464FF0B6
:1023A4000103FFF7A1FF05F101052C1B3046A1B283
:1023B4003A464FF00103FFF797FFF8BD2DE9F047C8
:1023C40081468A461646FFF7BFFD4FF0000540F6EA
:1023D4004427C2F2000740F22408C2F20008FFF7C3
:1023E40011FD4FF00004735B43FA04F313F0010F83
:1023F4000CBFB8F80000388880B2FFF75FFC04F126
:102404000104102CEFD14FF44060C4F201004FF0EE
:1024140004014FF00102FFF799FC09F101095FFA89
:1024240089F948465146FFF78FFD05F10205302D25
:10243400D5D1BDE8F08700BF08B5C1F59E7101F1A3
:1024440003014BF22C03C0F60003A2F12002D2B226
:1024540002EB420289B203EB0212FFF7AFFF08BDA1
:10246400F8B506460C4615461278B1F5A07F2CBF88
:1024740000230123002A0CBF002303F00103ABB1A6
:1024840040F23F1730462146FFF7D6FF04F110040F
:10249400A4B215F8012FBC428CBF00230123002AEB
:1024A4000CBF002303F00103002BEBD1F8BD00BFE8
:1024B40008B54FF000014CF24052C0F60002FFF79D
:1024C400CFFF08BD38B505464FF0000040F23F117C
:1024D400FFF73AFDFFF796FC4FF496342846FFF7D2
:1024E400EDFB013CFAD14FF44060C4F201004FF01F
:1024F40004014FF00102FFF729FC38BD30B587B065
:102504004FF011004FF0010103F058FF4FF48050D9
:10251400C0F220004FF0010103F044FA4FF40040F0
:102524004FF0010103F05CFF4FF4E052ADF80020DE
:102534004FF003038DF802304FF018038DF8033089
:102544004FF48050C4F20100694603F083F94FF45C
:102554007054C4F20004204604F0E8F94FF000037C
:10256400ADF804304FF48272ADF80620ADF80830AF
:102574004FF00202ADF80A204FF00105ADF80C50FF
:102584004FF40072ADF80E20ADF81030ADF81230F3
:10259400204601A904F004FA2046294604F0D0FAA2
:1025A40007B030BD08B5FFF7B3FBFFF7A7FF4FF047
:1025B4000500FFF74FFB4FF0E5004FF40041FFF734
:1025C4002BFC4FF000004FF00101FFF725FC4FF00A
:1025D40001004FF48071FFF71FFC4FF002004FF42D
:1025E400E061FFF719FC4FF0030041F23001FFF7FF
:1025F40013FC4FF004004FF00001FFF70DFC4FF007
:10260400080040F20221FFF707FC4FF009004FF0E9
:102614000001FFF701FC4FF00A004FF00001FFF743
:10262400FBFB4FF00C004FF00001FFF7F5FB4FF000
:102634000D004FF00001FFF7EFFB4FF00F004FF0DC
:102644000001FFF7E9FB4FF010004FF00001FFF726
:10265400E3FB4FF011004FF00001FFF7DDFB4FF0FB
:1026640012004FF00001FFF7D7FB4FF013004FF0BB
:102674000001FFF7D1FB4FF01400FFF7EBFA4FF026
:10268400100041F2B071FFF7C7FB4FF0110040F2A8
:102694003711FFF7C1FB4FF00500FFF7DBFA4FF0EE
:1026A400120040F23911FFF7B7FB4FF00500FFF7B6
:1026B400D1FA4FF013004FF4E851FFF7ADFB4FF0A0
:1026C40029004FF01301FFF7A7FB4FF00500FFF7B8
:1026D400C1FA4FF020004FF00001FFF79DFB4FF0CF
:1026E40021004FF00001FFF797FB4FF030004FF04F
:1026F4000601FFF791FB4FF0310040F20111FFF7A3
:102704008BFB4FF032004FF00301FFF785FB4FF0D6
:1027140035004FF48371FFF77FFB4FF0360040F62E
:102724000231FFF779FB4FF0370040F20231FFF737
:1027340073FB4FF0380040F20771FFF76DFB4FF069
:1027440039004FF00701FFF767FB4FF03C004FF4EF
:10275400C061FFF761FB4FF03D0040F20B21FFF732
:102764005BFB4FF050004FF00001FFF755FB4FF0BB
:1027740051004FF0EF01FFF74FFB4FF052004FF0C5
:102784000001FFF749FB4FF0530040F23F11FFF700
:1027940043FB4FF060004FF41C51FFF73DFB4FF03B
:1027A40061004FF00101FFF737FB4FF06A004FF073
:1027B4000001FFF731FB4FF080004FF00001FFF7FD
:1027C4002BFB4FF081004FF00001FFF725FB4FF08A
:1027D40082004FF00001FFF71FFB4FF083004FF022
:1027E4000001FFF719FB4FF084004FF00001FFF7E1
:1027F40013FB4FF085004FF00001FFF70DFB4FF086
:1028040090004FF01001FFF707FB4FF092004FF0DC
:102814000001FFF701FB4FF093004FF00301FFF7B6
:10282400FBFA4FF095004FF48871FFF7F5FA4FF07B
:1028340097004FF00001FFF7EFFA4FF098004FF0C8
:102844000001FFF7E9FA4FF0030041F21801FFF726
:10285400E3FA4FF0070040F27311FFF7DDFA08BD09
:1028640008B5FFF79FFE08BD84B001904FF0000348
:102874000393019A48F2A063C0F2010303FB02F33D
:102884000393039B33B1039B03F1FF330393039B34
:10289400002BF8D104B0704700B585B04FF00003A9
:1028A400ADF804304BF6FF72ADF80620ADF80830F1
:1028B4004FF48063ADF80A304FF48040ADF80C005B
:1028C4004FF4D453C0F2060304A941F8103D4FEA73
:1028D400004040F4A840694603F0E4F805B000BDA8
:1028E4002DE9F8430746884691464FF4A844C4F2BC
:1028F400000420464FF0010103F018FA20464FF07F
:10290400000103F013FA40F22803C2F2000340F678
:10291400FF721A6020464FF0010103F053F9FFF7EC
:10292400BBFF20464FF0010103F07CF94FF4A845AA
:10293400C4F200054FF00106C0F2030640F2280479
:10294400C2F2000405E0236803F1FF322260002B89
:1029540076D02846314603F06FFA0028F3D04FF4BE
:10296400A840C4F2000039464FF0000203F0C8F951
:102974004FF4A845C4F200054FF08206C0F20706E2
:1029840040F22804C2F2000405E0236803F1FF3298
:102994002260002B58D02846314603F04DFA002817
:1029A400F3D04FF4A840C4F20000414603F0A2F96A
:1029B40040F22803C2F2000340F6FF721A604FF49B
:1029C400A845C4F200054FF08406C0F207061C4671
:1029D40005E0236803F1FF322260002B38D028463B
:1029E400314603F029FA0028F3D04FF4A840C4F28A
:1029F4000000494603F07EF94FF4A845C4F20005EF
:102A04004FF08406C0F2070640F22804C2F2000424
:102A140004E0236803F1FF322260EBB1284631461B
:102A240003F00AFA0028F4D04FF4A840C4F20000DE
:102A34004FF0010103F006F94FF00000BDE8F88300
:102A44004FF00200BDE8F8834FF00200BDE8F883C0
:102A54004FF00200BDE8F8834FF00200BDE8F883B0
:102A640010B504464FF003014FF00202FFF738FFA0
:102A74004FF00200FFF7F8FE20464FF003014FF03D
:102A84000002FFF72DFF4FF0000010BD10B50C46FB
:102A94004FF00D012246FFF723FF4FF088004FF05F
:102AA40014012246FFF71CFF4FF088004FF0150178
:102AB4002246FFF715FF4FF088004FF0160122461B
:102AC400FFF70EFF4FF0000010BD00BF08B50A4627
:102AD4004FF00B01FFF704FF4FF0000008BD00BFEB
:102AE40008B5024610F0010F18BF822004D110F07F
:102AF400050F18BF88200ED031B94FF01101FFF730
:102B0400EFFE4FF0000008BD4FF01001FFF7E8FEA4
:102B14004FF0000008BD4FF0030008BD2DE9F0415F
:102B240080460F464FF4A844C4F2000420464FF0F8
:102B3400000103F047F820464FF0010103F0F6F8D6
:102B440020464FF0000103F0F1F8FFF7A5FE204600
:102B54004FF0010103F066F840F22803C2F20003CB
:102B640040F6FF721A604FF4A845C4F200054FF016
:102B74000106C0F203061C4606E0236803F1FF3297
:102B84002260002B00F0C7802846314603F054F938
:102B94000028F2D04FF4A844C4F2000420464FF0B9
:102BA400000103F05FF8204641464FF0000203F0B5
:102BB400A7F840F22803C2F2000340F6FF721A603D
:102BC4004FF4A845C4F200054FF08206C0F2070690
:102BD4001C4606E0236803F1FF322260002B00F05C
:102BE4009D802846314603F027F90028F2D04FF49F
:102BF400A840C4F20000394603F07CF84FF4A8451D
:102C0400C4F200054FF08406C0F2070640F228041F
:102C1400C2F2000405E0236803F1FF322260002BB6
:102C24007FD02846314603F007F90028F3D04FF44B
:102C3400A840C4F200004FF0010102F0F3FF4FF48A
:102C4400A845C4F200054FF00106C0F2030640F2A5
:102C54002804C2F2000405E0236803F1FF32226075
:102C6400002B61D02846314603F0E6F80028F3D063
:102C74004FF4A840C4F2000041464FF0010203F0B3
:102C84003FF84FF4A845C4F200054FF00206C0F225
:102C9400030640F22804C2F2000405E0236803F1AD
:102CA400FF322260002B42D02846314603F0C4F89C
:102CB4000028F3D005E0236803F1FF32226063B9F2
:102CC40038E04FF4A845C4F200054FF04006C0F2C6
:102CD400030640F22804C2F200042846314603F0F9
:102CE400ABF80028E7D04FF4A840C4F200004FF03E
:102CF400010102F0A7FF4FF4A840C4F2000002F063
:102D0400FBFF04464FF4A840C4F200004FF0010159
:102D140002F0A8FF10E04FF002040DE04FF00204AF
:102D24000AE04FF0020407E04FF0020404E04FF021
:102D3400020401E04FF002042046BDE8F08100BF28
:102D440038B504460D464FF082004FF00901FFF7F5
:102D5400E5FE00F0F9022C434FF082004FF0090128
:102D64002243FFF7BDFD4FF088004FF00901FFF744
:102D7400D5FE00F0F9024FF088004FF0090122431C
:102D8400FFF7AEFD4FF0000038BD00BF2DE9F04164
:102D940004460E4617464FF01601FFF7BFFE804665
:102DA40020464FF01501FFF7B9FE6FEA0605EDB2B4
:102DB40008EA0502054017F0010F18BF324317F067
:102DC400020F18BF354320464FF01601FFF788FD68
:102DD40020464FF015012A46FFF782FD4FF0000010
:102DE400BDE8F08170B506460C4615464FF0170154
:102DF400FFF794FE15B10443E2B202E020EA0404B2
:102E0400E2B230464FF01701FFF76AFD4FF00000C1
:102E140070BD00BF10B582B04FF000048DF80740BC
:102E24004FF088004FF00401FFF778FE8DF807009B
:102E34009DF8073003F0F6038DF807309DF807205E
:102E44004FF088004FF00401FFF74AFD4FF088006F
:102E54004FF060014FF00102FFF742FD4FF0880090
:102E64004FF060014FF00302FFF73AFD204602B035
:102E740010BD00BF08B54FF082004FF00401FFF70A
:102E84004DFE00F0FC024FF082004FF00401FFF70A
:102E940027FD4FF082004FF00A01FFF73FFE40F09C
:102EA40007024FF082004FF00A01D2B2FFF718FD7B
:102EB4004FF082004FF020014FF04902FFF710FD60
:102EC4004FF00200FFF7D0FC4FF082004FF02101D9
:102ED4004FF00102FFF704FD4FF082004FF017019D
:102EE400FFF71CFE00F0E1024FF082004FF01701E3
:102EF400FFF7F6FC4FF082004FF041014FF09A02C9
:102F0400FFF7EEFC4FF082004FF04A014FF0010250
:102F1400FFF7E6FC4FF082004FF04B014FF0010247
:102F2400FFF7DEFC4FF082004FF04B014FF0000240
:102F3400FFF7D6FC4FF082004FF056014FF001022C
:102F4400FFF7CEFC4FF082004FF058014FF0010222
:102F5400FFF7C6FC4FF082004FF040014FF0010232
:102F6400FFF7BEFC4FF082004FF00B014FF0FF0261
:102F7400FFF7B6FC40F64823C2F200034FF000000E
:102F8400D88098805880188008BD00BF70B5064668
:102F94000C4615464FF00C01FFF7C0FD15B1044374
:102FA400E2B202E020EA0404E2B230464FF00C013F
:102FB400FFF796FC4FF0000070BD00BF70B50646E9
:102FC4000C4615464FF00A01FFF7A8FD15B104435E
:102FD400E2B202E020EA0404E2B230464FF00A0111
:102FE400FFF77EFC4FF0000070BD00BF38B505460A
:102FF4000C464FF00901FFF791FD28464FF00901F7
:10300400221C18BF0122FFF76BFC4FF0000038BDF3
:1030140070B506460C4615464FF01301FFF77EFDCA
:1030240015B10443E2B202E020EA0404E2B23046FD
:103034004FF01301FFF754FC4FF0000070BD00BFC8
:1030440070B506460C4615464FF00401FFF766FDC1
:103054001DB120EA0404E2B201E00443E2B23046C6
:103064004FF00401FFF73CFC4FF0000070BD00BFBF
:1030740038B505464FF00001FFF750FD4FEA002038
:1030840084B228464FF00101FFF748FD204380B287
:1030940038BD00BF08B5FFF7EBFF40F611039842B7
:1030A40009D040F22803C2F200031868002814BFB4
:1030B4000120022008BD4FF0000008BD30B583B0E8
:1030C4004FF400104FF0010103F08AF94FF00900AA
:1030D4004FF0010103F072F94FF400104FF00101B9
:1030E40003F0B4F94FF400104FF0000103F0AEF90F
:1030F4004FF0C003ADF804304FF001058DF80650D1
:103104004FF01C038DF807304FF44064C4F20104FF
:10311400204601A902F09EFB4FF48043ADF8043031
:103124004FF048038DF80730204601A902F092FBC6
:1031340028464FF00E0102F06DFC4FF08200FFF7BD
:10314400A9FF00287AD14FF08800FFF7A3FF0028D9
:1031540077D14FF08200FFF783FC4FF08800FFF730
:103164007FFC4FF082004FF007012A46FFF768FF0B
:103174004FF0820029462A46FFF74AFF4FF08200AB
:1031840029462A46FFF72EFE28464FF00001FFF796
:10319400A7FC4FF088004FF00C014FF00002FFF73E
:1031A40037FF4FF088004FF00C012A46FFF71AFE54
:1031B4004FF088004FF00C014FF00302FFF7E6FDDB
:1031C400FFF758FE4FF088004FF00D012A46FFF735
:1031D40037FF4FF088004FF005012A46FFF718FF2C
:1031E4004FF088004FF005012A46FFF7FBFD4FF032
:1031F40004004FF00001FFF773FC28464FF0000174
:10320400FFF76EFC4FF088004FF0F8014FF000021A
:10321400FFF7FEFE4FF088004FF0F8012A46FFF753
:10322400E1FD4FF088004FF0F8014FF00302FFF783
:10323400ADFDFFF7EFFD4FF0000004E04FF0040098
:1032440001E04FF0050003B030BD00BF10B50C46DF
:103254004FF00D01FFF762FC20420CBF002001205B
:1032640010BD00BF10B582B00C464FF000038DF8BE
:1032740007304FF00B01FFF751FC8DF807009DF864
:1032840007301C420CBF0020012002B010BD00BF5B
:1032940010B54FF088004FF060014FF00302FFF7C4
:1032A4001FFB4FF088004FF06101FFF737FC00F07F
:1032B40003004FEA002040F64824C2F20004A06054
:1032C4004FF088004FF06201FFF728FCA368034326
:1032D400A360A36840F6E44202FB03F245F2ED6307
:1032E400C5F60F53A3FB0213D21A03EB52034FEAA2
:1032F4005323A360A26802F105024CF6CD43CCF639
:10330400CC43A3FB02134FEAD303A360A06810BD10
:1033140008B54FF088004FF01201FFF7FFFB00F0F3
:10332400F803F82B12D010F0800F12D010F0400FD9
:1033340012D010F0200F12D010F0100F12D000F0A5
:10334400080000280CBF0520002008BD4FF0000035
:1033540008BD4FF0010008BD4FF0020008BD4FF05A
:10336400030008BD4FF0040008BD00BF10B50446BB
:1033740010F00C0F05D110F0F80F18BF88200DD0F5
:1033840001E04FF082004FF01201FFF7C7FB20402D
:1033940010F0FF0F0CBF0020012010BD4FF0030000
:1033A40010BD00BF30B585B004464FF004004FF0A7
:1033B4000001FFF7C5FC14F0040F29D04FF088007A
:1033C4004FF00101FFF712FE4FF088004FF0F801B3
:1033D4004FF00102FFF7DAFD4FF088004FF0800153
:1033E4004FF00102FFF7EAFD4FF088004FF00D01A6
:1033F400FFF794FB4FF088004FF0F8014FF0010203
:10340400FFF7C4FD4FF088004FF00D01FFF786FB76
:1034140014F0020F29D04FF082004FF00101FFF7A2
:10342400E5FD4FF082004FF00C014FF00102FFF771
:10343400ADFD4FF082004FF080014FF00102FFF725
:10344400BDFD4FF082004FF00D01FFF767FB4FF019
:1034540082004FF00C014FF00102FFF797FD4FF08F
:1034640082004FF00D01FFF759FB14F0010F13D048
:103474004FF082004FF00101FFF7B8FD4FF08200DA
:103484004FF007014FF00102FFF798FD4FF0820063
:103494004FF00D01FFF742FB4FF009004FF001011F
:1034A40002F08CFF4FF48044ADF808404FF0040361
:1034B4008DF80B304FF44060C4F2010002A902F011
:1034C400C9F94FF001004FF00E0102F0A3FA009485
:1034D4004FF000048DF804404FF010038DF80530D0
:1034E4004FF001058DF80650684601F003FB4FF0DC
:1034F40028038DF80C304FF00F038DF80D308DF844
:103504000E308DF80F5003A800F0B2F9204605B034
:1035140030BD00BF2DE9F04182B0074688464FF028
:1035240000048DF804408DF805408DF806408DF8B0
:1035340007404FF4A845C4F200052846214602F08E
:1035440041FB28464FF0010102F0F0FB28462146DA
:1035540002F0ECFBFFF7A0F928464FF0010102F05E
:1035640061FB40F22803C2F2000340F6FF721A60C6
:103574004FF4A845C4F200054FF00106C0F203065B
:103584001C4606E0236803F1FF322260002B00F0A2
:10359400C8802846314602F04FFC0028F2D04FF490
:1035A400A840C4F2000039464FF0000202F0A8FB24
:1035B4004FF4A845C4F200054FF08206C0F2070696
:1035C40040F22804C2F2000406E0236803F1FF324B
:1035D4002260002B00F0A8802846314602F02CFC23
:1035E4000028F2D04FF4A844C4F2000420464FF05F
:1035F400010102F0E7FA20465FFA88F102F07AFB53
:103604004FF4A845C4F200054FF08406C0F2070643
:1036140040F22804C2F2000406E0236803F1FF32FA
:103624002260002B00F083802846314602F004FC1F
:103634000028F2D04FF4A840C4F200004FF001017A
:1036440002F0F0FA4FF4A845C4F200054FF0010669
:10365400C0F2030640F22804C2F2000405E0236825
:1036640003F1FF322260002B64D02846314602F079
:10367400E3FB0028F3D04FF4A840C4F2000039461D
:103684004FF0010202F03CFB4FF4A845C4F20005E0
:103694004FF00206C0F2030640F22804C2F200040E
:1036A40005E0236803F1FF322260002B45D0284651
:1036B400314602F0C1FB0028F3D04FF002054FF46D
:1036C400A844C4F200044FF04006C0F203064FF0D1
:1036D40000070AE0012D08D12046394602F0C2FA5B
:1036E40020464FF0010102F0ADFA2046314602F0C7
:1036F400A3FB0028EED0204602F0FEFA02AA5319DA
:1037040003F8050C05F1FF35EDB2002DE2D14FF4BD
:10371400A840C4F200004FF0010102F0A3FA01989E
:103724000DE04FF002000AE04FF0020007E04FF016
:10373400020004E04FF0020001E04FF0020002B08A
:10374400BDE8F08110B54FF082004FF04001FFF763
:10375400E5F900F0800080B240F64823C2F200038D
:103764001880002858D04FF082004FF04F01FFF727
:10377400D1FE00EB800040F393134FEA43134CF661
:103784000932C8F63D5282FB0314E4184FEAE3738E
:10379400C3EB2414A4F1110424EAE474A4B24FF09A
:1037A40082004FF04D01FFF7B5FEC0EB001040F36F
:1037B4001323C3EB03134FEA031342F60362C9F264
:1037C400017282FB0312D2184FEAE373C3EBE212D5
:1037D400A2F10C0222EAE27292B240F64823C2F24B
:1037E4000003DB689C428CBFC3EB0401C4EB030100
:1037F40040F64823C2F200031B699A428CBFC3EB14
:103804000203C2EB03035B18052B81BF40F6482378
:10381400C2F20003DC601A6140F64824C2F20004DC
:10382400A3896380218AA1804FF082004FF0510167
:10383400FFF770FEE0804FF082004FF04B014FF035
:103844000102FFF74DF84FF082004FF04B014FF0AB
:103854000002FFF745F8204610BD00BF40F0BE60EF
:1038640040F420204FF46D43CEF20003D86070473B
:1038740010B4C3785BB34FF46D43CEF20003DB683E
:103884006FEA0303C3F30223C3F10402417801FA8C
:1038940002F24FF00F0121FA03F184782140114321
:1038A40002784FEA0111C9B24FF46143CEF200032A
:1038B4009A1882F8001302784FEA521102F01F029C
:1038C4004FF0010000FA02F243F8212010E00378DF
:1038D4004FEA531203F01F034FF0010101FA03F101
:1038E4004FF46143CEF2000302F1200243F82210A8
:1038F40010BC704721F0604121F07F0101434FF477
:103904006D43CEF200039960704700BF39B14FF4A4
:103914006D43CEF200031A691043186170474FF4E7
:103924006D43CEF200031A6922EA00001861704761
:1039340004284EF21003CEF200031A680CBF42F0C2
:10394400040222F004021A60704700BF08B54FF465
:103954001053C4F2010398420CD14FF400704FF09D
:10396400010102F061FD4FF400704FF0000102F01C
:103974005BFD08BD4FF42053C4F2010398420CD1FF
:103984004FF480604FF0010102F04EFD4FF480606F
:103994004FF0000102F048FD08BD4FF47053C4F22B
:1039A400010398420BD14FF400404FF0010102F0A3
:1039B4003BFD4FF400404FF0000102F035FD08BD1F
:1039C40010B4436823F4702323F480730A68134308
:1039D4000A7943EA0223436084688A68CB681A43FD
:1039E4004FF2FD73CFF6F173234013434A7943EA50
:1039F40042038360C26A22F470020B7C03F1FF333A
:103A0400DBB242EA0353C36210BC70474FF00003B9
:103A14000360037143718360C3604FF00103037457
:103A2400704700BF21B1836843F00103836070478E
:103A3400836823F001038360704700BF21B183686A
:103A440043F4807383607047836823F480738360D6
:103A5400704700BFC9B21AB1436819434160704747
:103A6400436823EA01014160704700BF836843F063
:103A740008038360704700BF8068C0F3C0007047CC
:103A8400836843F004038360704700BF8068C0F319
:103A94008000704721B1836843F4A00383607047BA
:103AA400836823F4A0038360704700BF8068C0F379
:103AB40080507047436823F4604301F1FF3143EAC7
:103AC40041334360704700BF21B1436843F400634E
:103AD40043607047436823F400634360704700BF4A
:103AE40070B4092910D9C66801EB4104A4F11E047D
:103AF4004FF0070505FA04F526EA050503FA04F470
:103B040045EA0403C3600DE0066901EB41044FF08C
:103B1400070505FA04F526EA050503FA04F445EA5F
:103B240004030361062A10D8446B02F1FF3202EB4E
:103B340082024FF01F0303FA02F324EA030301FA9B
:103B440002F143EA0102426322E00C2A10D8046B1A
:103B540002EB8202A2F123024FF01F0303FA02F3E5
:103B640024EA030301FA02F143EA010202630FE0CB
:103B7400C46A02EB8202A2F141024FF01F0303FA6E
:103B840002F324EA030301FA02F143EA0102C262E6
:103B940070BC704721B1836843F48013836070471D
:103BA400836823F480138360704700BFC06C80B2C5
:103BB400704700BF42F24C43C4F2010318687047D7
:103BC40021B1436843F4806343607047436823F43E
:103BD40080634360704700BF21B1436843F480535E
:103BE40043607047436823F480534360704700BFC9
:103BF400836823F4E0430B438360704721B18368F7
:103C040043F4004383607047836823F40043836074
:103C1400704700BF21B1836843F402138360704787
:103C2400836823F402138360704700BF8068C0F385
:103C34004050704770B4092910D9C66801EB41049B
:103C4400A4F11E044FF0070505FA04F526EA05055C
:103C540003FA04F445EA0403C3600DE0066901EBCA
:103C640041044FF0070505FA04F526EA050503FAB1
:103C740004F445EA04030361836BC3F30154121B88
:103C840002F10202D2B202EB82024FF01F0404FAE4
:103C940002F423EA040301FA02F10B43836370BCC8
:103CA400704700BF836B23F4401301F1FF3143EAF3
:103CB40001538363704700BF82B04FF00003019348
:103CC4000190019BCB180193019B1A6002B07047CD
:103CD40082B04FF0000301930190019B03F128038C
:103CE4005B180193019B186880B202B0704700BF53
:103CF400436823F4400323F400730B434360704789
:103D040041628262704700BF436823F01F030B4384
:103D14004360704740B14FF41053C4F201039A68F2
:103D240042F400029A6070474FF41053C4F2010346
:103D34009A6822F400029A60704700BF036819422F
:103D44000CBF0020012070476FEA01010160704739
:103D54004268036813EA112305D0C9B211420CBFAB
:103D64000020012070474FF0000070476FEA1121D6
:103D74000160704708B54FF0010002F079FB4FF085
:103D8400000002F075FB08BD48F20463C4F20D2381
:103D9400186070474FF40643C4F20D23186070474F
:103DA40048F28863C4F20D23186070474FF4D84278
:103DB400C4F20002938D23F460734FEA03434FEA85
:103DC40013430343938570474FF4D842C4F200026F
:103DD400938D23F07F034FEA03434FEA13430343D6
:103DE4009385704782B04FF0000301934FF4D8439A
:103DF400C4F200030193019BC3180193019B196052
:103E040002B0704782B04FF0000301934FF4D843DF
:103E1400C4F200030193019BC3180193019B18880A
:103E240080B202B0704700BF48F2A063C4F20D2311
:103E34001868C0B2704700BF4FF4D843C4F20003FF
:103E44009A8E92B242F001029A86704748F2A463B5
:103E5400C4F20D231868C0B2704700BF4FF4D843B2
:103E6400C4F200039A8E92B242F002029A8670471C
:103E740001420CBF00200120704700BF08B54FF479
:103E8400C843C4F2000398420CD14FF000704FF0C5
:103E9400010102F0DBFA4FF000704FF0000102F074
:103EA400D5FA08BD4FF080604FF0010102F0CEFA60
:103EB4004FF080604FF0000102F0C8FA08BD00BF67
:103EC400036823F002030360036843F00103036003
:103ED400436813F0010F07D14FF6FF73426812F0E5
:103EE400010F01D1013BF9D1436813F0010F5DD0FB
:103EF4008B79012B03680CBF43F0800323F080030C
:103F04000360CB79012B03680CBF43F0400323F01B
:103F1400400303600B7A012B03680CBF43F02003BA
:103F240023F0200303604B7A012B03680CBF43F09A
:103F3400100323F0100303608B7A012B03680CBF7A
:103F440043F0080323F008030360CB7A012B0368D2
:103F54000CBF43F0040323F004030360CA788B7896
:103F64004FEA837343EA02630A7943EA02434A79D4
:103F740043EA02520B8803F1FF331343C36103681E
:103F840023F001030360436813F0010F07D04FF6D9
:103F9400FF73426812F0010F01D0013BF9D143686D
:103FA40013F0010F14BF0020012070474FF00000F0
:103FB400704700BF70B4837A4FF0010101FA03F136
:103FC4004FF4C843C4F20003D3F8002242F00102C4
:103FD400C3F80022D3F81C426FEA01021440C3F86C
:103FE4001C42037BDBB94FF4C843C4F20003D3F88B
:103FF4000C421440C3F80C42847AC688458845EACA
:10400400064504F1480443F83450857A86880488C8
:1040140044EA064405F1480503EBC5035C60037BF1
:10402400012B1BD14FF4C843C4F20003D3F80C4254
:104034000C43C3F80C42847A0688458845EA064551
:1040440004F1480443F83450857A8688C48844EAE5
:10405400064405F1480503EBC5035C60C37A4BB91C
:104064004FF4C843C4F20003D3F804421440C3F825
:10407400044208E04FF4C843C4F20003D3F80442F6
:104084000C43C3F80442038943B94FF4C843C4F250
:104094000003D3F814422240C3F814220389012BED
:1040A40001BF4FF4C843C4F20003D3F814220A43F7
:1040B40008BFC3F81422437B012B01BF4FF4C8434C
:1040C400C4F20003D3F81C22114308BFC3F81C1226
:1040D4004FF4C843C4F20003D3F8002222F00102D3
:1040E400C3F8002270BC70474FF000038371C371A2
:1040F400037243728372C3728370C3704FF00303FD
:1041040003714FF0020343714FF0010303807047C2
:104114004FF4C843C4F20003D3F8002242F0010272
:10412400C3F80022D3F8002222F47C5222F00E02BB
:10413400C3F80022D3F8002242EA0022C3F8002286
:10414400D3F8002222F00102C3F80022704700BF16
:104154001AB14369194341617047436923EA010174
:1041640041617047F0B40346826812F0806F18BF53
:1041740000200BD1826812F0006F18BF012005D116
:10418400826812F0805F18BF022055D0054600F106
:1041940018024FEA02129C5804F001049C500A7A57
:1041A4005AB900F118024FEA02129E580F684C7A6D
:1041B40044EA475434439C500BE000F118044FEA9E
:1041C40004141E594F6842EAC70232434E7A3243FE
:1041D4001A518A7A02F00F028A7205F118044FEA22
:1041E40004141A19566826F00F06566056688F7A1A
:1041F4003E4356608A7B4E7B4FEA064646EA026699
:10420400CA7A16430A7B46EA022603EB051202F534
:10421400C475C2F888618E7C4A7C4FEA024242EA45
:104224000662CE7B3243097C42EA01226A601A5953
:1042340042F001021A5101E04FF00400F0BC704753
:10424400012913D021B1022918BF00202DD11DE06E
:104254008268836802F0010203F0020343EA8202E7
:104264008368C3F3806342EA03001EE083688268C4
:1042740002F4007203F480734FEA931343EA1222A8
:104284008368C3F3C06342EA03000EE08368826874
:1042940002F4003203F480334FEA933343EA1242C8
:1042A4008368C3F3007342EA030020B1072814BFF4
:1042B4000020012070474FF002007047012908D008
:1042C40011B102290ED109E0836843F080038360B1
:1042D4007047836843F4004383607047836843F402
:1042E40000038360704700BF19B94FF02003C36017
:1042F40070474FF020030361704700BF19B9C068CD
:1043040000F003007047012906BF006900F00300B4
:104314000020704738B501F11B034FEA0313C3585B
:1043240003F00403DBB2137243B901F11B034FEA38
:104334000313C3584FEA5353136007E001F11B03FF
:104344004FEA0313C3584FEAD303536001F11B042C
:104354004FEA04140319045904F0020454725C680B
:1043640004F00F0494725B684FEA1323D37400EBD8
:10437400011303F5DC74D3F8B851D572D3F8B851EE
:104384004FEA15251573D3F8B8514FEA15455573FF
:10439400D3F8B8314FEA136393736368D3736368D4
:1043A4004FEA1323137463684FEA13435374636827
:1043B4004FEA13639374FFF797FF38BD21B1036885
:1043C40043F4803303607047036823F4803303604D
:1043D400704700BF036823F0030343F00203036044
:1043E400406800F00300022814BF00200120704739
:1043F400036823F002030360436813F0020F07D03D
:104404004FF6FF73426812F0020F01D0013BF9D15D
:10441400436813F0020F14BF00200120704700BF4F
:10442400836919420CBF002001207047836923EA85
:1044340001038361704700BF08B520293FD00CD821
:10444400062924D004D804292DD0052961D118E0E7
:10445400072922D008295CD12BE0B1F5007F40D098
:1044640005D8402931D0B1F5807F52D133E0B1F580
:10447400803F48D0B1F5003F3FD0B1F5806F48D1BF
:1044840035E080684FF00101FFF7F2FC08BD806859
:104494004FF48071FFF7ECFC08BD80684FF4803165
:1044A400FFF7E6FC08BDC0684FF00801FFF7E0FC29
:1044B40008BDC0684FF01001FFF7DAFC08BD0069C1
:1044C4004FF00801FFF7D4FC08BD00694FF010015C
:1044D400FFF7CEFC08BD80694FF00101FFF7C8FC6F
:1044E40008BD80694FF00201FFF7C2FC08BD806976
:1044F4004FF00401FFF7BCFC08BD40684FF0100109
:10450400FFF7B6FC08BD40684FF00801FFF7B0FCA8
:1045140008BD4FF0000008BD202935D00CD806296D
:1045240022D004D8042927D005294BD118E0072923
:104534001ED0082946D123E0B1F5007F31D005D83B
:10454400402925D0B1F5807F3CD125E0B1F5803FED
:1045540031D0B1F5003F32D0B1F5806F32D125E0D2
:104564004FF00103836070474FF48073836070479A
:104574004FF48033836070474FF00803C360704783
:104584004FF01003C36070474FF008030361704796
:104594004FF0100303617047836923F001038361C3
:1045A4007047836923F0020383617047836923F0B2
:1045B4000403836170474FF00803436070474FF072
:1045C40010034360704700BF4FF44053C4F202032A
:1045D4004FF001029A6070474FF44053C4F2020353
:1045E40018601868704700BF10B40B4661B14FF0F3
:1045F40000024FF44054C4F2020450F8041B21603A
:1046040002F101029A42F8D14FF44053C4F202037A
:10461400186810BC704700BF4FF44053C4F2020343
:10462400186870474FF44053C4F20203187170477E
:104634004FF44053C4F202031879704708B54FF0A1
:1046440000504FF0010101F001FF4FF000504FF016
:10465400000101F0FBFE08BD30B44FF4E843C4F29E
:1046640000031C6840F6FE7202FA00F224EA020219
:104674004D680C6825438C682543CC6845EA0401E1
:1046840001FA00F01043186030BC70474FF000038B
:10469400036043608360C360704700BF59B14FF447
:1046A400E843C4F200031A684FF0010101FA00F074
:1046B4001043186070474FF4E843C4F200031A68CB
:1046C4004FF0010101FA00F022EA0000186070477F
:1046D40059B14FF4E843C4F200031A684FF480510F
:1046E40001FA00F01043186070474FF4E843C4F235
:1046F40000031A684FF4805101FA00F022EA000026
:104704001860704769B14FF4E843C4F200035A6873
:104714004FEA10104FF0010101FA00F01043586005
:1047240070474FF4E843C4F200035A684FEA10108C
:104734004FF0010101FA00F022EA000058607047CE
:1047440040B14FF4E843C4F200035A6842F0030254
:104754005A6070474FF4E843C4F200035A6822F0E9
:1047640003025A60704700BF4AB14FF4E843C4F2F1
:1047740000031A6801FA00F11143196070474FF4FD
:10478400E843C4F200031A6801FA00F122EA0101C5
:104794001960704782B04FF0000301934FF4E8436F
:1047A400C4F200030193019B03F108031B18019356
:1047B400019B196002B0704782B04FF0000301936F
:1047C4004FF4E843C4F200030193019B03F1140383
:1047D4001B180193019B196002B0704708280CBF95
:1047E40042EA012142EA014147F22043C4F20003B4
:1047F400C150704782B04FF0000301934FF4E84377
:10480400C4F200030193019B03F12C0303EB900317
:104814000193019B186880B202B070474FF40053B3
:10482400CEF2040318684FEA104070474FF4005367
:10483400CEF2040318684FEA00504FEA1050704754
:1048440039B14FF40053CEF204035A681043586050
:1048540070474FF40053CEF204035A6822EA000072
:1048640058607047036823F0010303604FF00003AE
:10487400036043608360C3604FF00803C4F2020323
:10488400984208D14FF00003C4F202035A6842F080
:104894000F025A6070474FF01C03C4F2020398429F
:1048A40008D14FF00003C4F202035A6842F0F00248
:1048B4005A6070474FF03003C4F20203984208D1A3
:1048C4004FF00003C4F202035A6842F470625A6063
:1048D40070474FF04403C4F20203984208D14FF0EA
:1048E4000003C4F202035A6842F470425A607047EB
:1048F4004FF05803C4F20203984208D14FF000036A
:10490400C4F202035A6842F470225A6070474FF0AE
:104914006C03C4F20203984208D14FF00003C4F2BE
:1049240002035A6842F470025A6070474FF08003E1
:10493400C4F20203984208D14FF00003C4F2020308
:104944005A6842F070625A6070474FF48163C4F24F
:104954000203984208D14FF48063C4F202035A68F8
:1049640042F00F025A60704740F21C43C4F2020343
:10497400984208D14FF48063C4F202035A6842F0AB
:10498400F0025A6070474FF48663C4F202039842FF
:1049940008D14FF48063C4F202035A6842F470628F
:1049A4005A60704740F24443C4F20203984208D16B
:1049B4004FF48063C4F202035A6842F470425A60AE
:1049C40070474FF48B63C4F20203984201BF4FF463
:1049D4008063C4F202035A6842F4702208BF5A602A
:1049E400704700BF10B4026822F4FE4222F0F002C5
:1049F4000C6A8B6823430C6923434C6923438C69F9
:104A04002343CC6923434C6A23438C6A23431343D3
:104A14000360CB6843600B6883604B68C36010BC61
:104A2400704700BF4FF00003036043608360C360BE
:104A3400036143618361C3610362436283627047BC
:104A440021B1036843F0010303607047036823F056
:104A540001030360704700BF1AB103681943016082
:104A64007047036823EA010101607047406880B21F
:104A7400704700BF10F0805F14BF4FF480630023C1
:104A8400C4F202031B6803420CBF002001207047DC
:104A940010F0805F14BF4FF480630023C4F202035C
:104AA4005860704710F0805F14BF4FF48063002398
:104AB400C4F202031B6803420CBF002001207047AC
:104AC40010F0805F14BF4FF480630023C4F202032C
:104AD400586070474FF48063C4F201034FF0000242
:104AE4001A605A609A60DA604FF6FF72C0F20F02E1
:104AF4005A61704710B48379002B39D04FF4806326
:104B0400C4F201031A68016822EA01021A605A68B1
:104B1400016822EA01025A60027902F1804202F538
:104B2400823214680168214311609A68016822EA9C
:104B340001029A60DA68016822EA0102DA604379C4
:104B4400102B0CD14FF48063C4F2010399680268FE
:104B54000A439A60D96802680A43DA6012E003F1F2
:104B6400804303F58233196802680A431A6009E036
:104B7400037903F1804303F582331A68016822EA5A
:104B840001021A6010BC70474FF000030360037108
:104B94004FF00C0242718371704700BF4FF4806381
:104BA400C4F201031A6902431A6170474FF4806327
:104BB400C4F201035B6918420CBF00200120704756
:104BC4004FF48063C4F20103586170474FF480636B
:104BD400C4F201031A685B69184204D010420CBF86
:104BE4000020012070474FF0000070474FF48063AD
:104BF400C4F20103586170474FF40053C4F2020336
:104C04001A6802F0380202431A6070474FF40053E6
:104C1400C4F202031A6822F008021A601A680243F6
:104C24001A6070474FF40053C4F202031A6822F06A
:104C340010021A601A6802431A6070474FF4005356
:104C4400C4F2020340F22312C4F267525A6048F6D7
:104C5400AB12CCF6EF525A60704700BF4FF40053CA
:104C6400C4F202031A6942F080021A61704700BF5D
:104C74004FF40053C4F20203D8694FEA900070471E
:104C84004FF40053C4F20203186A70474FF4005300
:104C9400C4F20203D869C0F3400070474FF40053D4
:104CA400C4F202031868C0F34010704739B14FF4DE
:104CB4000053C4F202031A691043186170474FF499
:104CC4000053C4F202031A6922EA00001861704713
:104CD400012807D14FF40053C4F20203D86900F04D
:104CE400010070474FF40053C4F20203DB6818421A
:104CF4000CBF0020012070474FF40053C4F202039C
:104D0400D86070474FF40053C4F20203DB6813F019
:104D1400010F13D14FF40053C4F20203DB6813F004
:104D2400040F0ED14FF40053C4F20203D86800F00C
:104D3400100000280CBF0420032070474FF001002E
:104D440070474FF00200704770B582B00446FFF719
:104D5400D9FF231C18BF0123012814BF002303F02B
:104D64000103DBB14FF000054FF0FF0601950196FA
:104D7400019B33B1019B03F1FF330193019B002B92
:104D8400F8D1FFF7BFFF013C0CBF0023012301282A
:104D940014BF002303F00103002BE7D1002C08BF4C
:104DA400052002B070BD00BF70B505460C4616461E
:104DB4004FF40053C4F2020340F22312C4F26752C8
:104DC4009A6048F6AB12CCF6EF529A604FF00F009F
:104DD400FFF7BAFF04281FD14FF40053C4F20203B3
:104DE4001A6942F010021A6145F0F8052C43264373
:104DF4004FF47843C1F6FF735E804FF00F00FFF766
:104E0400A3FF052808D04FF40053C4F20203196924
:104E140041F6EF720A401A6170BD00BF10B5044636
:104E240040F6FF70FFF790FF042853D14FF400536E
:104E3400C4F2020340F22312C4F267529A6048F6A5
:104E4400AB12CCF6EF529A601A6942F020021A6152
:104E54001A6942F040021A6140F6FF70FFF774FFCE
:104E640004282CD14FF40053C4F20203196941F60B
:104E7400DF720A401A611A6942F010021A613CB1E9
:104E84004FF47843C1F6FF734FF000021A8006E036
:104E94004FF47843C1F6FF734FF0A5021A8040F631
:104EA400FF70FFF751FF052814D04FF40053C4F2EC
:104EB4000203196941F6EF720A401A6110BD052810
:104EC40008D04FF40053C4F20203196941F6DF72AB
:104ED4000A401A6110BD00BF10B504464FF00F0020
:104EE400FFF732FF042869D16FEA0404E1B24FF4FA
:104EF4000053C4F2020340F22312C4F267529A60D0
:104F040048F6AB12CCF6EF529A601A6942F01002DE
:104F14001A61FF2908D04FF47843C1F6FF73198151
:104F24004FF00F00FFF710FFC4F30723B3F1FF02A4
:104F340018BF0122042814BF002202F0010242B16A
:104F44004FF47842C1F6FF7253814FF00F00FFF720
:104F5400FBFEC4F30743B3F1FF0218BF0122042888
:104F640014BF002202F0010242B14FF47842C1F6AC
:104F7400FF7293814FF00F00FFF7E6FE4FEA1464CF
:104F8400B4F1FF0318BF0123042814BF002303F066
:104F9400010343B14FF47843C1F6FF73DC814FF052
:104FA4000F00FFF7D1FE052808D04FF40053C4F2D8
:104FB4000203196941F6EF720A401A6110BD00BF7D
:104FC40038B504460D464FF00F00FFF7BDFE042828
:104FD40021D14FF40053C4F2020340F22312C4F26D
:104FE40067529A6048F6AB12CCF6EF529A601A698F
:104FF40042F010021A6125804FF00F00FFF7A4FE63
:10500400052808D04FF40053C4F20203196941F68D
:10501400EF720A401A6138BD38B504460D464FF0A8
:105024000F00FFF791FE042817D14FF40053C4F288
:1050340002031A6942F001021A6125804FF00F0041
:10504400FFF782FE052808D04FF40053C4F2020390
:10505400196941F6FE720A401A6138BD30B583B051
:1050640005460C464FF0000301934FF00F00FFF785
:105074006BFE042831D14FF40053C4F202031A69C1
:1050840042F001021A61A3B22B804FF00F00FFF728
:105094005BFE042816D105F102050195019B4FEA38
:1050A40014441C804FF00F00FFF74EFE052814D067
:1050B4004FF40053C4F20203196941F6FE720A4028
:1050C4001A610AE0052808D04FF40053C4F2020321
:1050D400196941F6FE720A401A6103B030BD00BF7F
:1050E40008B540F6FF70FFF72FFE04284AD14FF4AD
:1050F4000053C4F2020340F22312C4F267529A60CE
:1051040048F6AB12CCF6EF529A601A6942F02002CC
:105114001A611A6942F040021A6140F6FF70FFF703
:1051240013FE042823D14FF40053C4F20203196977
:1051340041F6DF720A401A611A6942F010021A61DC
:105144004FF47843C1F6FF734FF0A5021A804FF075
:105154000F00FFF7F9FD052814D04FF40053C4F2F3
:105164000203196941F6EF720A401A6108BD052865
:1051740008D04FF40053C4F20203196941F6EF72E8
:105184000A401A6108BD00BF08B540F6FF70FFF77A
:10519400DBFD04281AD14FF40053C4F202031A6948
:1051A40042F004021A611A6942F040021A6140F6A0
:1051B400FF70FFF7C9FD052808D04FF40053C4F26F
:1051C4000203196941F6FB720A401A6108BD00BF67
:1051D40010B5044640F6FF70FFF7B6FD04281BD156
:1051E4004FF40053C4F202031A6942F002021A6136
:1051F4005C611A6942F040021A6140F6FF70FFF7E1
:10520400A3FD052808D04FF40053C4F20203196922
:1052140041F6FD720A401A6110BD00BF034628B969
:1052240043F2DB014FF02042116005E043F2D2016A
:105234004FF0204242F8201003F101006FF070415A
:105244004FF0204242F820104FF48272CAF200025A
:1052540042F82310704700BF10280CBF602380233E
:10526400CAF200034FF018021A604FF040025A606D
:105274004FF0FC329A60DA60704700BF4FF0A00331
:10528400CAF200034FF018021A604FF000025A608D
:105294004FF0FC329A60DA601A61704710B4026809
:1052A400816843681943C36819430369194343690F
:1052B400194383691943C3691943036A1943436A48
:1052C4001943836A1943C36A19434FF0204343F8CF
:1052D40022108368082B01BF02684FF0204353F863
:1052E400221041F0400108BF43F82210026802F185
:1052F4000102036B9C69196821435C6841EA04114B
:105304009C6841EA0421DC6841EA04411C6941EAE1
:1053140004515B6941EA03614FF0204343F82210D2
:10532400836AB3F5804F17D10268436B9869196893
:105334000143586841EA0011986841EA002118695C
:1053440041EA00515B6941EA03614FF48273CAF296
:10535400000343F8221008E002684FF48273CAF293
:1053640000036FF0704143F8221010BC704700BF77
:1053740030B4446883681C4344F00804C3681C4385
:1053840003691C43436944EA4324836944EA43347C
:10539400C3695A689D684FEA054545EA02251A68BB
:1053A4001543DB6845EA0365036A59689A684FEA5E
:1053B400024242EA012219680A43DB6842EA0362B4
:1053C4000368102B0CBF60238023CAF200031C6007
:1053D4009D60DA6030BC704710B4026842F010027D
:1053E400436842EA4322836842EA43324FF0A0030F
:1053F400CAF200031A60C268546891684FEA014116
:1054040041EA042114682143D26841EA02629A60A5
:105414000269546891684FEA014141EA0421146821
:105424002143D26841EA0262DA60426950689168B5
:105434004FEA014141EA002110680143D26841EA80
:1054440002621A6110BC704710B44FF0000303608D
:105454004FF0020242608360C36003614361836171
:10546400C3614FF4805202624FF40052426283627D
:10547400C362016B4FF00F020A60016B4A60046B58
:105484004FF0FF01A160046BE260046B2261046BC6
:105494006261046BA361446B2260446B6260446B81
:1054A400A160416BCA60416B0A61416B4A61426B06
:1054B400936110BC704700BF4FF0100303604FF0BE
:1054C400000343608360C360036143618361C26915
:1054D4004FF0FC031360C2695360C2699360C269F0
:1054E400D360026A1360026A5360026A9360026ABC
:1054F400D36070474FF00003036043608360C26869
:105504004FF0FC031360C2685360C2689360C268C2
:10551400D36002691360026953600269936002698F
:10552400D36042691360426953604269936042697F
:10553400D360704741B14FF0204353F8202042F02C
:10554400010243F8202070474FF0204252F8201007
:105554004FF6FE73C0F20F030B4042F82030704741
:1055640051B110280CBF60238023CAF200031A68CB
:1055740042F004021A60704710280CBF6022802297
:10558400CAF2000211684FF6FB73C0F20F030B401E
:105594001360704740B14FF0A003CAF200031A68C9
:1055A40042F004021A6070474FF0A002CAF20002EF
:1055B40011684FF6FB73C0F20F030B401360704782
:1055C40051B110280CBF60238023CAF200031A686B
:1055D40042F040021A60704710280CBF60228022FB
:1055E400CAF2000211684FF6BF73C0F20F030B40FA
:1055F40013607047102803BF6023CAF20003586980
:1056040080231CBFCAF2000358697047A2B1102856
:1056140007D14FF06003CAF200035A68114359607E
:105624007047B0F5807F0CBF8023A023CAF200032B
:105634005A68114359607047102808D14FF060032D
:10564400CAF200035A6822EA010159607047B0F5B2
:10565400807F0CBF8023A023CAF200035A6822EA89
:1056640001015960704700BF102805D14FF0600355
:10567400CAF200035B6807E0B0F5807F0CBF8023AB
:10568400A023CAF200035B680B420CBF0020012078
:10569400704700BF102808D14FF06003CAF200031E
:1056A4005A6822EA010159607047B0F5807F0CBF47
:1056B4008023A023CAF200035A6822EA0101596038
:1056C400704700BF102805D14FF06003CAF20003F1
:1056D4005B6807E0B0F5807F0CBF8023A023CAF28B
:1056E40000035B680B420CBF0020012013EAD101C8
:1056F4000CBF002000F00100704700BF102808D143
:105704004FF06003CAF200035A6822EAD1015960DB
:105714007047B0F5807F0CBF8023A023CAF200033A
:105724005A6822EAD1015960704700BF08B54FF4A6
:105734000063C4F2010398420CD14FF004004FF00F
:10574400010100F071FE4FF004004FF0000100F081
:105754006BFE08BD4FF44063C4F2010398420CD1C0
:105764004FF008004FF0010100F05EFE4FF008001A
:105774004FF0000100F058FE08BD4FF48053C4F20E
:10578400010398420CD14FF010004FF0010100F0DA
:105794004BFE4FF010004FF0000100F045FE08BD35
:1057A4004FF4A053C4F2010398420CD14FF02000EF
:1057B4004FF0010100F038FE4FF020004FF00001DF
:1057C40000F032FE08BD4FF4C053C4F20103984206
:1057D4000CD14FF040004FF0010100F025FE4FF0D6
:1057E40040004FF0000100F01FFE08BD4FF4E053ED
:1057F400C4F2010398420CD14FF080004FF0010134
:1058040000F012FE4FF080004FF0000100F00CFE9B
:1058140008BD4FF40053C4F2010398420BD14FF476
:1058240080704FF0010100F0FFFD4FF480704FF0E5
:10583400000100F0F9FD08BD08B54FF00100014674
:1058440000F0F2FD4FF001004FF0000100F0ECFD1C
:1058540008BD00BF2DE9F003CB7803F00F0513F06A
:10586400100F1CBF8B781D430B782BB3D0F800C0EE
:105874004FF000034FF001064FF00F0806FA03F251
:105884000C881440944211D14FEA830708FA07F9AF
:105894002CEA090C05FA07F74CEA070CCF78282FF5
:1058A40008BF446102D0482F08BF026103F101031D
:1058B400082BE3D1C0F800C00B88FF2B27D9D0F800
:1058C40004C04FF000034FF001064FF00F0803F13E
:1058D400080206FA02F20C881440944211D14FEAED
:1058E400830708FA07F92CEA090C05FA07F74CEACA
:1058F400070CCF78282F08BF4461CC78482C08BF08
:10590400026103F10103082BE1D1C0F804C0BDE832
:10591400F00370474FF0FF3303804FF002038370AE
:105924004FF00403C3707047836819420CBF002012
:1059340001207047806880B2704700BFC368194275
:105944000CBF002001207047C06880B2704700BFC0
:1059540001617047416170470AB10161704741615B
:10596400704700BFC160704741F480338361816137
:10597400836183698369704710B44FF00003C4F2F4
:1059840001031C684FF68072224041EA00110A4369
:105994001A6010BC704700BF4FF01C03C4F22023F0
:1059A4001860704730B44FF00003C4F201035B6821
:1059B40084B200F44012B2F5401F0AD123F07063A0
:1059C4004FF00002C4F20102556825F0706555607D
:1059D40010E010F4801F1DBFC0F30342032505FA35
:1059E40002F2420D04BF120104FA02F223EA020396
:1059F40043F0706331B14FEA50504FEA001004FA9B
:105A040000F423434FF00002C4F20102536030BC9F
:105A1400704700BF30B401F003024FEA82024FEA3C
:105A240091014FF00003C4F2010301F1020153F8A4
:105A340021504FF00F0404FA02F425EA040443F859
:105A4400214053F8214000FA02F2144343F8214064
:105A540030BC70474FF0DC03C4F220231860704759
:105A640008B54FF4A843C4F2000398420CD14FF494
:105A740000104FF0010100F0E9FC4FF400104FF06A
:105A8400000100F0E3FC08BD4FF480004FF0010179
:105A940000F0DCFC4FF480004FF0000100F0D6FC75
:105AA40008BD00BF70B586B004460D46868826F052
:105AB4003F064FEA06464FEA164601A800F0DAFB15
:105AC40003994DF68362C4F21B32A2FB01024FEA32
