:020000040800F2
:100000006C0700208D09000871090008000000003D
:1000100071090008710900087109000871090008D8
:100020007109000871090008710900089566000847
:1000300071090008710900086166000809070008D5
:1000400071090008710900087109000871090008A8
:1000500071090008710900084507000871090008C6
:100060007109000871090008710900087109000888
:100070007109000871090008710900087109000878
:100080007109000871090008710900087109000868
:100090007109000871090008710900087109000858
:1000A0007109000871090008710900087109000848
:1000B0007109000871090008710900087109000838
:1000C0007109000871090008710900087109000828
:1000D0007109000871090008710900087109000818
:1000E0007109000871090008710900087109000808
:1000F00071090008710900087109000871090008F8
:1001000071090008710900087109000871090008E7
:1001100071090008710900087109000871090008D7
:1001200071090008710900087109000871090008C7
:100130007109000871090008000000007109000839
:1001400071090008710900087109000871090008A7
:040150007109000829
:1001540070B50521044605F04BFD2046062105F047
:1001640047FD2046072105F043FD264600250023D0
:1001740028460135337786F821300549EDB200F081
:10018400BEFB0136052DF2D102486060022070BD2D
:100194006E7B00089D0100080A882DE9F041531E7A
:1001A4000446082B00F2E480DFE813F00900E200C3
:1001B400E200D6006A00DD00E200E20035000646F7
:1001C400002596F82100EFB2013500B30521B5FBF7
:1001D400F1F000EB8002AB1A5FFA83FC04EB0C0332
:1001E400197FA1B996F81C80B8F1000F0FD1012234
:1001F4001A7704213277062005F062FD077105F0B5
:10020400C1FD86F8218038465D4900F078FB01364F
:10021400052DD6D1A4E00D79042D03D8401990F80A
:1002240021301BB157488F2100F064FB2846564902
:1002340000F065FB6B1C0522B3FBF2F101EB8100BE
:100244001A1A5FFA82FC04EB0C02117F99B9631944
:100254001E7F86B90120107704211877062005F047
:100264002FFD057105F08EFD2846454900F047FB3A
:100274003046BDE8F0816419012384F821306FE031
:100284000D79042D03D8411991F821601EB13D4820
:10029400AC2100F02FFB28463C4900F030FB691CE0
:1002A40005226019B1FBF2F6027F06EB860CCCEB5B
:1002B4000103012ADEB203D1A319187F012803D058
:1002C4003048B12100F016FB0020A119087761190C
:1002D40005230877281DB0FBF3FC0CEB8C0ECEEB4A
:1002E4000005EDB2631993F821208AB11A7F7AB917
:1002F4000120087783F8212018770421062005F0CF
:10030400DFFC057105F03EFD28461D4900F0F7FAB3
:10031400A31993F82100002830D0701C0521B0FBEC
:10032400F1FC0CEB8C0ECEEB0005EAB2A418257F91
:100334001DBB01221A7783F821502277042106205D
:1003440005F0BEFC067105F01DFD30460C4900F0B9
:10035400D6FA2846BDE8F0810A48D02100F0CAFA4E
:100364000020BDE8F0810A4B43600220BDE8F08123
:10037400084941600320BDE8F0810020BDE8F08118
:10038400777B000898660008807B00086E7B000875
:10039400CD0300089D03000808B50B88042B05D085
:1003A400072B09D1002000F0C5FA03E004486421BA
:1003B40000F0A0FA002008BD024B4360032008BDF2
:1003C40098660008515B00080A8870B5531E0446FD
:1003D400082B53D8DFE803F005075252240C52527D
:1003E4001000012000E0002000F091FA002070BD10
:1003F40024494160022070BD0D79042D03D84319AE
:1004040093F8210018B12048F92100F073FA641917
:10041400012284F8212028461C4900F070FAE5E7FF
:100424000D79042D03D8411991F8216026B116489D
:1004340040F2051100F05EFA2846154900F05FFA13
:10044400691C05206319B1FBF0F6187F06EB860CD6
:10045400CCEB01020128D6B205D1A31993F81CE014
:10046400BEF1010F04D008484FF4857100F042FA40
:10047400A619002064193077207770BD054A4260C0
:10048400032070BD9D01000898660008807B000869
:100494006E7B00089D0300080B4B0C490C4800229E
:1004A400196058601A7783F821205A7783F822203C
:1004B4009A7783F82320DA7783F8242083F820209E
:1004C40083F82520704700BF2C010020515B0008F1
:1004D4005501000810B5074B04461A780AB90120E3
:1004E40018702046042105F083FB034B022063604F
:1004F40010BD00BF54010020010500080A8810B592
:10050400531E0446092B2AD8DFE803F00529291ACB
:100514001A29292929160023438500F0F9F93222E2
:10052400B0FBF2F101FB1203193304F11C00214664
:100534009AB205F03DFD10E00C494160022010BD67
:100544000B4C0C4A031B9C1054430879E4B2A042A0
:1005540009D10948762100F0CDF9002010BD0749E2
:100564004160032010BD002010BD00BF85050008B8
:1005740058010020A38B2EBAA4660008515B000822
:1005840010B504460888042813D005281ED0012875
:100594002BD10921062005F093FB174B174AE41AC7
:1005A400A4105443164B01460471186805F0D0FAA0
:1005B40019E0114A0979A31A104A9B105343DAB27D
:1005C400914217D10F486060022010BD0A480B4BBE
:1005D400221A94105C430979E4B2A14209D10A4871
:1005E4009B2100F087F9002010BD084903206160B9
:1005F40010BD002010BD00BF58010020A38B2EBAEF
:10060400A066000815060008A4660008515B0008EF
:100614000A8810B5531E0446092B37D8DFE803F0C7
:10062400051636272736363636230022428500F053
:100634006FF93221B0FBF1FC0CFB110043189AB2A4
:1006440004F11C00214605F0B3FC1DE00521062041
:1006540005F036FB1049114B641AA4105C43047175
:1006640005F090FB10E00E4A4260022010BD0A4CD7
:100674000A4B021B94105C430879E4B2A04209D1EE
:100684000848C12100F036F9002010BD0649416038
:10069400032010BD002010BD58010020A38B2EBAEA
:1006A40001050008A4660008515B000810B5002489
:1006B4002C236343064A0749D018D150064B0A211C
:1006C400436001341C3005F05FFC052CF0D110BDF3
:1006D40058010020515B0008D904000800284FEAA3
:1006E400011105DA054A00F00F00831819767047E6
:1006F400034A831883F80013704700BFFCEC00E042
:1007040000E100E0684620F0070CE54619B572B632
:10071400094C23785A1C227062B605F083FB72B62A
:100724002178064B481E4FF0805220701A6062B642
:10073400BDE81940854670476003002004ED00E0E1
:10074400684620F0070CE54631B572B60F4C2178A7
:10075400481C207062B60E4B01220E4D5A610821CE
:1007640004202D6805F0ACFA0146284605F0F0F99E
:1007740072B62178084B481E4FF0805220701A60E0
:1007840062B6BDE831408546704700BF6003002073
:1007940000040140A066000804ED00E013B500F079
:1007A40025F9002000F0B6F9012000F0B3F9022089
:1007B40000F0B0F9032000F0ADF908200123002473
:1007C4008DF80500684600938DF806308DF80440D6
:1007D40002F0E6FB00F0F5FE4FF6FF7000F034FD8A
:1007E4004FF2DE7000F094FA204600F085FA2046BD
:1007F40021461B4A00F010FD18202146194A00F03A
:100804000BFD21463020184A00F006FD05F022FABF
:10081400E0210246302000F0FFFC4FF6FF7000F0AC
:1008240077FA2146114A782000F0F6FC204600F0C1
:100834006FFA4FF6E07000F05FFA21460C4AD820B8
:1008440000F0EAFC1F2000F063FA4FF6FF7000F09E
:1008540053FA78204021074A00F0DEFC1CBD00BF9B
:10086400897B00089E7B0008B37B0008C87B0008D6
:10087400CD7B0008E27B000873B51648322302687A
:10088400B2FBF3F3B3F1807F0BD2134C5E1E0F2146
:1008940066604FF0FF30FFF721FF00250721A560B8
:1008A400216000240625012601A88DF804508DF846
:1008B40005408DF806408DF8076001F0EBFB3146EA
:1008C4004FF0FF30FFF70AFF28462146FFF706FFE7
:1008D4007CBD00BFD866000810E000E0704708B592
:1008E40072B6032000F034F9032000F03FF962B639
:1008F40030BF08BD72B6FEE708B5FFF7FBFF302333
:1009040043430A78782003F1500100F073BC704728
:10091400034B04481A6850431860000A704700BF2C
:1009240034020020CD0D0100014B1860704700BF58
:1009340034020020704700BF08B503482221FFF7A6
:10094400D9FF002008BD00BFC06600080148282167
:10095400FFF7D0BFC066000808B503482D21FFF794
:10096400C9FF002008BD00BFC0660008684620F02B
:1009740007018D4601B540F251110248FFF7BCFF53
:10098400FEE700BFF47B0008684620F007018D46AF
:1009940001B50F4A0F4B03E052F8040B43F8040B64
:1009A4000D498B42F8D30D4B02E0002243F8042B8F
:1009B4000B488342F9D305F0DBFD05F0FDFD094842
:1009C4004FF4A671FFF798FFBDE8014085467047D4
:1009D400207C000800000020440000204400002087
:1009E4006C030020F47B0008704700BF454B82B0C5
:1009F4001A6842F0010018605968434A01EA02008B
:100A040058601A6822F0847121F4803018601A68E2
:100A140022F480211960586820F4FE025A60196893
:100A24004FF47F0221F0A050002118609A60D9622F
:100A340000910191186840F480321A60314B1868B3
:100A440000F400310191009A501C0090019919B9E9
:100A5400009AB2F5A06FF1D1186810F4003118BFF4
:100A640001210191019B012B48D1284B196841F0C8
:100A740010021A60186820F0030119601A6842F025
:100A8400020018601F4B596859605A685A605868C8
:100A940040F480615960DA6A1D4802EA0001D962B3
:100AA400DA6A42F4823C4CF41170D862196841F05D
:100AB40080621A60134B18680101FBD5586820F452
:100AC4007C1159605A6842F4E8105860196841F082
:100AD40080721A600B4B1A689201FBD5596821F099
:100AE40003025A60586840F002015960054843689F
:100AF40003F00C0CBCF1080FF8D100E0FEE702B0E3
:100B0400704700BF001002400000FFF000200240C8
:100B140000F0FEFF37B50C4D0446012155F82000C6
:100B240003F078FC05EB4405084B102103202D8AC3
:100B34008DF807108DF8060001A953F82400ADF8CC
:100B4400045002F09EFF3EBDE06600080000002055
:100B5400044A054952F8203001EB4000028A1A6128
:100B6400704700BF00000020E0660008044A054901
:100B740052F8203001EB4000028A5A61704700BFEE
:100B840000000020E0660008054B064953F82030B9
:100B940001EB4000DA68018A4A40DA60704700BF1E
:100BA40000000020E0660008F0B5204C8700E3193F
:100BB4009A6985B006460D4642F00100012103F012
:100BC40029FC04EB46041A4BA18C0420DF19ADF870
:100BD40008108DF80B0002A9386902F052FF012DAC
:100BE40022D194F8301094F82A0003F007F8002278
:100BF400E38E96420CBF08260C26684600938DF8B7
:100C040004208DF805608DF8065002F0C9F90F2014
:100C1400A18F8DF80D008DF80E0003A88DF80C102F
:100C24008DF80F5001F036FA05B0F0BDE06600080B
:100C34000000002008B50549054B03EB800201EBD9
:100C44004003998C106902F073FF08BDE066000848
:100C54000000002037B504460D462120012103F091
:100C6400D9FB44B90820012102F09CFF4FF4003065
:100C7400012103F0DBFB1249202001EB8404032251
:100C84001823ADF8040001A9E0698DF806208DF859
:100C9400073002F0F6FE042340200DEB0301ADF80B
:100CA4000400E0698DF8073002F0EBFE206A294663
:100CB40004F088FD206A012104F0F7FD3EBD00BF69
:100CC4000000002084B0002301900393019B054A97
:100CD400534301E00398431E039303990029F9D178
:100CE40004B07047A086010002460248042102F0C5
:100CF40035BF00BF000C014082B0ADF80600BDF85E
:100D04000620024B1A8002B0704700BF3802002050
:100D140082B0ADF80600BDF80620024B1A8002B07E
:100D2400704700BF2400002010B504460020FFF7E0
:100D3400DBFF0548214603F0F5FE0348802103F05C
:100D44004AFF0028F9D110BD003C004010B504460C
:100D54007020FFF7E9FF0C48002103F0E3FE0A4886
:100D6400802103F038FF0028F9D10748214603F019
:100D7400D9FE0548802103F02EFF0028F9D1012077
:100D8400BDE81040FFF7B0BF003C0040304A10B54A
:100D9400B2F800C02CF0380421040B0C1380148822
:100DA400A1B241F008031380FFF7D0FF7320FFF7CF
:100DB400BBFF05242648FF2103F0B4FE244880210C
:100DC40003F009FF0028F9D12148012103F003FFB2
:100DD4000028F9D01E4803F0A7FE601EC4B2002C00
:100DE400E8D11B48FF2103F09DFE1948802103F040
:100DF400F2FE0028F9D11648012103F0ECFE002888
:100E0400F9D0134803F090FEFF210446104803F084
:100E140089FE0F48802103F0DEFE0028F9D10C483A
:100E2400012103F0D8FE0028F9D0094803F07CFE24
:100E340040EA04240120FFF757FF054AA4B2B2F8A0
:100E440000C02CF0380001040B0C1380204610BDA8
:100E5400003C0040222008B5FFF778FF7220BDE86F
:100E64000840FFF761BF10B50C46FFF76FFF722013
:100E7400FFF75AFF0C48210A03F054FE0A48802168
:100E840003F0A9FE0028F9D10748E1B203F04AFEB5
:100E94000548802103F09FFE0028F9D10120BDE818
:100EA4001040FFF721BF00BF003C0040034610B5CF
:100EB40020200C461946FFF7D6FF21202146BDE825
:100EC4001040FFF7D0BF904270B505460C461E4651
:100ED40004D3431C9A1A502091B201E050200021FF
:100EE400FFF7C1FF51202946FFF7BDFFB44204D3E9
:100EF400601C861BB1B2522001E052200021FFF792
:100F0400B2FF53202146FFF7AEFF28462146BDE835
:100F14007040FFF7CBBF08B5EF2040F23F11F0223D
:100F24004FF4A073FFF7CFFF032041F21801BDE88F
:100F34000840FFF798BF10B50446210A094803F09A
:100F4400F1FD0848802103F046FE0028F9D1054848
:100F5400E1B203F0E7FD0348802103F03CFE0028E2
:100F6400F9D110BD003C004010B50446FFF772FFF4
:100F74002046FFF7E0FF0120BDE81040FFF7B4BEB4
:100F84002DE9F04F0D464FEA420185B00446C1F108
:100F940003099046824600271FFA88FB0BEB0500E5
:100FA40086B2314601963F4E5046FFF77FFFB6F8B2
:100FB40000C01FFA8CF0FFF7D7FFCBEB05018BB213
:100FC400194650460293FFF771FF328890B2FFF73B
:100FD400CBFF019BE01B5FFA80FB19465846FFF7E5
:100FE40065FF318888B2FFF7BFFF029A5846114661
:100FF400FFF75CFF33881FFA87FB98B2FFF7B4FF53
:101004005FFA88F21019C3B20BEB050189B21846D6
:10101400039101920293FFF749FF338898B2FFF7D7
:10102400A3FFCBEB05021FFA82FC61460298CDF8C0
:1010340008C0FFF73BFFB6F800B01FFA8BF0FFF7CC
:1010440093FF0199631A5FFA83FB03995846FFF7EC
:101054002DFF328890B2FFF787FFDDF808C05846AD
:101064006146FFF723FF308880B2FFF77DFFB9F1B7
:10107400000F04DA09EB870909F1060907E0C8EB58
:10108400070209F10A0E0EEB820908F1FF38013755
:101094000AF1010347455FFA83FA7FF67DAF05B095
:1010A400BDE8F08F3802002070B540F23F110446CD
:1010B4000020FFF7FBFE0025FFF7CCFE12E0012124
:1010C40011FA06F263591A420CBF0A4B0A4B013655
:1010D400188880B2FFF72FFF202EF0D10435B5F524
:1010E400165F01D00026EAE70120BDE87040FFF753
:1010F400FBBD00BF2400002038020020F8B51F46C5
:1011040004460D461646FFF7D1FEE7B9FFF7A2FEE7
:1011140005E00F4B0137188880B2FFF70CFFB74288
:10112400F7D30120BDE8F840FFF7DEBD084A0134DB
:101134001188E4B288B2FFF717FF20462946FFF76B
:10114400B5FE013700E00027B742EFD3F8BD00BF7A
:10115400380200202DE9F041054614461E461A4681
:1011640000230F46FFF7CAFF6019394632460023B1
:10117400C0B2FFF7C3FF2846394622460123FFF7D2
:10118400BDFF0137BE1B2846B1B222460123BDE88C
:10119400F041FFF7B3BF2DE9F04104460D46174671
:1011A400FFF784FE0026FFF755FE4FF00008BA5BF8
:1011B40042FA08F1CB0754BF0C4B0D4B08F1010860
:1011C400188880B2FFF7B7FEB8F1100FEFD10134E1
:1011D4000120E4B2FFF788FD023620462946FFF7D6
:1011E40065FE302EDFD1BDE8F08100BF2400002071
:1011F4003802002010B5203AC1F59E74054BE11C5D
:10120400D2B2302404FB023289B2BDE81040FFF7A9
:10121400C2BF00BF3067000870B506460C461546CD
:1012240005E021463046FFF7E5FF1034A4B215F877
:10123400012B12B1B4F5A07FF3D370BD014A002194
:10124400FFF7EABF097C000838B540F23F110446B5
:101254000020FFF72BFEFFF7FDFD4FF496352046E7
:10126400FFF769FE013DFAD10120BDE83840FFF7E0
:101274003BBD08B510200021FFF7F5FD112000212A
:10128400FFF7F1FD12200021FFF7EDFD00211320EF
:10129400FFF7E9FD1420FFF715FD102041F2B071AE
:1012A400FFF7E1FD112040F23711FFF7DCFD0520C7
:1012B400FFF708FD122040F23911FFF7D4FD052095
:1012C400FFF700FD13204FF4E851FFF7CCFD132185
:1012D4002920FFF7C8FD0520FFF7F4FC072040F2A2
:1012E4007311BDE80840FFF7BEBD072040F273113B
:1012F400FFF7B9BD07200021FFF7B5BD07B50820EA
:10130400012103F087F804210320ADF804108DF8BF
:1013140006001023034801A98DF8073002F0B1FB41
:101324000EBD00BF000C014002F018BC10B5112026
:1013340086B0012103F06EF801211D4802F032FC51
:1013440001214FF4004003F071F818244FF4E05CDD
:10135400032305A91748ADF814C08DF816308DF88D
:10136400174002F08EFB144803F0BCFA02204FF43D
:1013740082710023ADF80210ADF8060001244FF489
:10138400007269460C48ADF80030ADF80430ADF891
:101394000840ADF80A20ADF80C30ADF80E3003F07B
:1013A400D3FA0548214603F08CFB06B010BD00BFFC
:1013B4000010200000100140003C004008B5FFF779
:1013C4009DFFFFF7B3FF0520FFF77CFCE5204FF4FA
:1013D4000041FFF748FD00200121FFF744FD0120F3
:1013E4004FF48071FFF73FFD02204FF4E061FFF7F7
:1013F4003AFD032041F23001FFF735FD04200021BE
:10140400FFF731FD082040F20221FFF72CFD0920EF
:101414000021FFF728FD0A200021FFF724FD0C20FE
:101424000021FFF720FD0D200021FFF71CFD0F20F8
:101434000021FFF718FD10200021FFF714FD1120F3
:101444000021FFF710FD12200021FFF70CFD002101
:101454001320FFF708FD1420FFF734FC102041F29D
:10146400B071FFF700FD112040F23711FFF7FBFCCC
:101474000520FFF727FC122040F23911FFF7F3FC97
:101484000520FFF71FFC13204FF4E851FFF7EBFC96
:1014940013212920FFF7E7FC0520FFF713FC202088
:1014A4000021FFF7E0FC21200021FFF7DCFC3020C5
:1014B4000621FFF7D8FC312040F20111FFF7D3FCDD
:1014C40032200321FFF7CFFC35204FF48371FFF75F
:1014D400CAFC362040F60231FFF7C5FC372040F243
:1014E4000231FFF7C0FC382040F20771FFF7BBFC64
:1014F40039200721FFF7B7FC3C204FF4C061FFF708
:10150400B2FC3D2040F20B21FFF7ADFC502000213E
:10151400FFF7A9FC5120EF21FFF7A5FC5220002181
:10152400FFF7A1FC532040F23F11FFF79CFC602021
:101534004FF41C51FFF797FC61200121FFF793FC46
:101544006A200021FFF78FFC80200021FFF78BFC2D
:1015540081200021FFF787FC82200021FFF783FC14
:1015640083200021FFF77FFC84200021FFF77BFC10
:1015740000218520FFF777FC90201021FFF773FCF2
:1015840092200021FFF76FFC93200321FFF76BFCEF
:1015940095204FF48871FFF766FC97200021FFF730
:1015A40062FC98200021FFF75EFC032041F2180141
:1015B400FFF759FC072040F27311BDE80840FFF71C
:1015C40052BCFFF7FBBE00BF1FB54BF6FF730021F3
:1015D400ADF806300A4BADF80410ADF808104FF41E
:1015E400806004A9ADF80A004FF4804241F8103D30
:1015F40004486946ADF80C2002F03AFB05B000BD82
:10160400801A060000540040002382B00193054B69
:1016140001E00198431E019301990029F9D102B018
:10162400704700BF400D0300F8B507460E462F482B
:10163400012115462E4C02F025FC00212B4802F016
:1016440021FC40F6FF7301212848236002F08CFB43
:10165400FFF7BAFF2548012102F0AAFB04E0206845
:10166400421E226000283DD02048224902F07BFC23
:101674000028F4D01D483946002202F0EFFB04E0B4
:1016840021684B1E236000292CD018481A4902F007
:101694006AFC0028F4D01548314602F0DAFB40F623
:1016A400FF70206003E021684A1E2260D1B10F4818
:1016B400124902F058FC0028F5D00C48294602F0E3
:1016C400C8FB03E02368581E20606BB107480B4930
:1016D40002F049FC0028F5D00448012102F074FB13
:1016E4000020F8BD0220F8BD0220F8BD00540040DF
:1016F4002800002001000300820007008400070086
:1017040010B5032102220446FFF78EFFFFF77CFF8A
:10171400204603210022FFF787FF002010BD10B5EB
:101724000C4622460D21FFF77FFF14212246882014
:10173400FFF77AFF152122468820FFF775FF8820DE
:1017440016212246FFF770FF002010BD0A4608B597
:101754000B21FFF769FF002008BDC30710B502463F
:101764000C4604D410F0050F0DD0882000E0822030
:1017740024B91121FFF758FF204610BD1021FFF7AF
:1017840053FF002010BD032010BD70B505460E4662
:101794004248002102F0E8FA4048012102F072FBBD
:1017A4003E48002102F06EFB3D4CFFF70DFF3B4825
:1017B400012102F0FDFA40F6FF73236004E0206883
:1017C400421E2260002865D03448364902F0CBFB23
:1017D4000028F4D03148002102F002FB29462F48AA
:1017E400002202F03BFB40F6FF71216004E0236815
:1017F400581E2060002B4DD028482B4902F0B3FB23
:101804000028F4D02548314602F023FB04E0216887
:101814004A1E226000293DD02048244902F0A3FB3F
:101824000028F4D01D48012102F0C2FA04E0236824
:10183400581E2060002B2DD018481A4902F093FB43
:101844000028F4D015482946012202F007FB03E0E2
:1018540021684A1E2260E9B11048154902F083FB51
:101864000028F5D003E02368581E206093B10B488C
:10187400104902F078FB0028F5D00121074802F056
:10188400A3FA064802F0E7FA01210446034802F0ED
:10189400A7FA00E00224204670BD00BF00540040B7
:1018A40028000020010003008200070084000700D4
:1018B400020003004000030038B50D460446092128
:1018C4008220FFF762FF2C4300F0F90343EA04028D
:1018D40009218220FFF7A8FE09218820FFF755FF80
:1018E40000F0F902092188202243FFF79DFE002021
:1018F40038BD2DE9F0410E46162117460546FFF77F
:1019040044FF152180462846FFF73FFFF143CCB240
:1019140008EA04020440F80748BF3243B90748BF45
:10192400344328461621FFF77FFE28461521224618
:10193400FFF77AFE0020BDE8F08170B50C4616462C
:1019440017210546FFF721FF0EB1044301E020EA09
:101954000404E2B228461721FFF766FE002070BD9A
:1019640013B50024042188208DF80740FFF70DFFEC
:101974008DF807009DF80700042100F0F6038DF8A8
:1019840007309DF807208820FFF74EFE60210122D2
:101994008820FFF749FE882060210322FFF744FED8
:1019A40020461CBD08B504218220FFF7EEFE042169
:1019B40000F0FC028220FFF737FE0A218220FFF7A5
:1019C400E4FE40F007020A218220D2B2FFF72CFE87
:1019D400202149228220FFF727FEFFF715FE01226E
:1019E40021218220FFF720FE17218220FFF7CDFE60
:1019F400172100F0E1028220FFF716FE4121822028
:101A04009A22FFF711FE4A2182200122FFF70CFEE1
:101A14004B2101228220FFF707FE4B210022822066
:101A2400FFF702FE562101228220FFF7FDFD582117
:101A340001228220FFF7F8FD402101228220FFF7D6
:101A4400F3FD82200B21FF22FFF7EEFD034B002064
:101A5400D88098805880188008BD00BF3C020020C0
:101A640070B50C4616460C210546FFF78EFE0EB1E6
:101A7400044301E020EA0404E2B228460C21FFF703
:101A8400D3FD002070BD70B50C4616460A210546EC
:101A9400FFF77BFE0EB1044301E020EA0404E2B246
:101AA40028460A21FFF7C0FD002070BD38B50C465A
:101AB40009210546FFF769FE0921221C18BF0122EE
:101AC4002846FFF7B1FD002038BD70B50C46164618
:101AD40013210546FFF759FE0EB1044301E020EA45
:101AE4000404E2B228461321FFF79EFD002070BDD6
:101AF40070B50C46164604210546FFF746FE16B19E
:101B040020EA040400E00443E2B228460421FFF77B
:101B14008BFD002070BD38B500210546FFF735FE6A
:101B240001028CB228460121FFF72FFE204380B228
:101B340038BD08B5FFF7EFFF40F61103984206D011
:101B440004490868002814BF0120022008BD0020B1
:101B540008BD00BF2800002037B54FF40010012154
:101B640002F064FC0920012102F054FC4FF400103F
:101B7400012102F07FFC4FF40010002102F07AFCF6
:101B84001C21C02201248DF807103D4801A9ADF89D
:101B940004208DF8064001F074FF4FF48040482380
:101BA400ADF8040001A936488DF8073001F069FF4B
:101BB40020460E2102F022F88220FFF7BAFF002807
:101BC40059D18820FFF7B5FF0546002855D182205A
:101BD400FFF796FD8820FFF793FD07218220224618
:101BE400FFF786FF822021462246FFF76EFF22463A
:101BF40082202146FFF7A1FE29462046FFF7ADFDCE
:101C04000C2188202A46FFF760FF0C2188202246F9
:101C1400FFF793FE0C2103228820FFF76AFEFFF7EB
:101C2400C1FE0D2188202246FFF762FF052188208E
:101C34002246FFF74AFF224605218820FFF77DFE52
:101C440029460420FFF789FD29462046FFF785FD34
:101C5400F8212A468820FFF738FFF82122468820F9
:101C6400FFF76BFEF82103228820FFF742FEFFF7FF
:101C740077FE284602E0042000E005203EBD00BFB8
:101C8400000C014010B50C460D21FFF77EFD2042EB
:101C94000CBF0020012010BD13B50C4600218DF8A7
:101CA40007100B21FFF771FD8DF807009DF8073031
:101CB4001C420CBF002001201CBD38B5032260214A
:101CC4008820FFF7B1FC61218820FFF75EFD00F05A
:101CD400030425020D4C6221A5608820A568FFF746
:101CE40054FD40EA0501A160A06840F6E442504377
:101CF40040F2EF2CB0FBFCF3A360A1680A22481D5C
:101D0400B0FBF2F3A360A06838BD00BF3C02002022
:101D140008B588201221FFF738FD00F0F803F82BEE
:101D24000ED003060ED541060ED582060ED5C30687
:101D34000ED500F0080000280CBF0520002008BDC7
:101D4400002008BD012008BD022008BD032008BDF5
:101D5400042008BD10F00C0F10B5044604D110F097
:101D6400F80F0CD0882000E082201221FFF70DFD2F
:101D7400204010F0FF0F0CBF0020012010BD0320F5
:101D840010BD30B50021044685B00420FFF794FD52
:101D940060071AD501218820FFF788FEF821012267
:101DA4008820FFF75DFE012280218820FFF76BFE6B
:101DB4000D218820FFF7E9FCF82188200122FFF794
:101DC4004FFE88200D21FFF7E0FCA1071AD5012161
:101DD4008220FFF76BFE0C2101228220FFF740FED8
:101DE400012280218220FFF74EFE0D218220FFF781
:101DF400CCFC0C2182200122FFF732FE82200D212F
:101E0400FFF7C3FCE2070CD501218220FFF74EFE49
:101E1400072182200122FFF736FE82200D21FFF7E1
:101E2400B4FC0920012102F0F5FA4FF480440422A5
:101E340002A914488DF80B20ADF8084001F021FEEA
:101E440001200E2101F0DAFE0125102100946846DC
:101E540000248DF805108DF804408DF8065001F02B
:101E64009FF828200F238DF80C0003A88DF80D305F
:101E74008DF80E308DF80F5000F00CF9204605B0A7
:101E840030BD00BF000C014073B5002405460E466A
:101E9400494821468DF804408DF805408DF80640E8
:101EA4008DF8074001F060FF4348012101F0EAFF8B
:101EB4002146414801F0E6FF404CFFF785FB3E48D0
:101EC400012101F075FF40F6FF73236004E02068F0
:101ED400421E226000286DD03748394902F043F889
:101EE4000028F4D034482946002201F0B7FF04E06A
:101EF40021684B1E236000295CD02F48314902F031
:101F040032F80028F4D001212B4801F02DFF2A4893
:101F1400F1B201F09EFF04E02068421E2260002816
:101F240048D02548284902F01EF80028F4D0224859
:101F3400012101F03DFF04E021684B1E23600029CC
:101F440038D01D481E4902F00EF80028F4D01A4873
:101F54002946012201F082FF03E02068421E22602C
:101F640040B31548194901F0FEFF0028F5D00DF1E2
:101F74000605032414E0012C07D10F48002101F0C9
:101F84002FFF0D48214601F01FFF0B48104901F0B7
:101F9400EAFF0028EFD0084801F05DFF05F8010DC5
:101FA400013CE4B2002CE6D10348012101F018FF02
:101FB400019800E002207CBD00540040280000206D
:101FC40001000300820007008400070002000300F0
:101FD4004000030038B540218220FFF7D6FB274C90
:101FE40000F0800188B2208098B34F218220FFF74F
:101FF4004BFF4FF4A07202FB00F52B1359011D2077
:1020040091FBF0F2113A4D21822022EAE275FFF7AA
:102014003BFFF021484303135943D92091FBF0F2CD
:102024000C3AE1682069ADB222EAE2739BB28D42B8
:102034008CBFC1EB050CC5EB010C83428CBFC0EB1C
:102044000300C3EB000000EB0C02052A84BFE5602B
:102054002361A089218A6080A18082205121FFF719
:1020640013FF4B21E08001228220FFF7DDFA82205A
:102074004B210022FFF7D8FA004838BD3C0200206B
:1020840040F0BE61024B41F42020D860704700BF8D
:1020940000ED00E0C37810B50BB3164A90F800C009
:1020A400D168CB4303F4E064230A4178C3F104020A
:1020B4000F24914034FA03F2847802EA040343EAD9
:1020C40001020D4B12010CEB030181F8002303788C
:1020D400012203F01F00590912FA00F306E0027806
:1020E400012302F01F00834051092031024840F8C7
:1020F400213010BD00ED00E000E100E021F0604C73
:102104002CF07F02024B42EA00019960704700BF45
:1021140000ED00E0044B1A6909B1104301E022EA22
:1021240000001861704700BF00ED00E0044B042874
:102134001A680CBF42F0040222F004021A607047CD
:1021440010E000E008B5134B984207D14FF400703B
:10215400012102F083F94FF4007014E00E49884223
:1021640007D14FF48060012102F078F94FF48060C8
:1021740009E00A4A90420BD14FF40040012102F0D9
:102184006DF94FF400400021BDE8084002F066B943
:1021940008BD00BF0024014000280140003C01406C
:1021A400436810B523F470220C6822F480730A7912
:1021B40043EA040C4CEA0224CB688A6844608468CD
:1021C40042EA030C094A04EA02034A794CEA030C82
:1021D4004CEA42038360097CC26A4B1E22F47002FB
:1021E400D9B242EA0153C36210BD00BFFDF7F1FF4B
:1021F400002101230160017141718160C160037498
:102204007047836811B143F0010301E023F0010337
:1022140083607047836811B143F4807301E023F451
:10222400807383607047C9B243680AB1194301E0FF
:1022340023EA010141607047816841F0080383602B
:1022440070478068C0F3C0007047816841F00403A0
:10225400836070478068C0F380007047836811B161
:1022640043F4A00301E023F4A00383607047806873
:10227400C0F3805070474368013923F4604242EA56
:10228400413343607047436811B143F4006301E094
:1022940023F4006343607047092970B54FEA410491
:1022A4000BD964181E3C0725A540A340C66826EA3E
:1022B400050545EA0304C4600AE064180725A5403F
:1022C40013FA04F4066926EA050545EA04030361E2
:1022D400062A0CD8013A02EB82021F239340914054
:1022E400446B24EA030C4CEA0102426370BD0C2ADD
:1022F4004FEA82030CD89A18233A1F23934011FA09
:1023040002F2046B24EA030C4CEA0201016370BD7F
:102314009A18413A1F23934011FA02F2C46A24EA3C
:10232400030C4CEA0201C16270BD836811B143F42D
:10233400801301E023F4801383607047C06C80B283
:102344007047014B186870474C240140436811B131
:1023540043F4806301E023F480634360704743687F
:1023640011B143F4805301E023F480534360704778
:10237400836823F4E04241EA020383607047836880
:1023840011B143F4004301E023F400438360704738
:10239400836811B143F4021301E023F40213836050
:1023A40070478068C0F340507047092970B54FEA00
:1023B40041040BD964181E3C0725A540A340C668F8
:1023C40026EA050545EA0304C4600AE06418072503
:1023D400A54013FA04F4066926EA050545EA040350
:1023E4000361836B03F440146FEA145C02EB0C0486
:1023F400E21C5FFA82FC0CEB8C021F24944011FA5D
:1024040002F223EA040C4CEA0201816370BD836B7F
:10241400013923F4401242EA01538363704782B0C6
:10242400002301930190019BC8180190019B1A603D
:1024340002B0704782B0002301930190019A2832C0
:1024440051180191019B186880B202B0704743682B
:1024540023F4400C2CF4007241EA020343607047F9
:10246400416282627047436823F01F0241EA02031B
:1024740043607047044B9A6810B142F4000201E0D3
:1024840022F400029A607047002401400368194254
:102494000CBF002001207047C943016070474368A6
:1024A400006810EA112004D0C9B219420CBF002000
:1024B400012070476FEA112101607047012008B5BF
:1024C40001F0E4FF0020BDE8084001F0DFBF014B4C
:1024D4001860704704860D42014B1860704700BFB6
:1024E40000860D42014B1860704700BF88860D427C
:1024F400054AB2F82CC02CF460710B04190C40EAA4
:1025040001039385704700BF006C0040054AB2F890
:102514002CC02CF07F010B04190C40EA01039385B5
:10252400704700BF006C0040054B82B0002201924E
:102534000193019A80180190019B196002B07047C1
:10254400006C0040064B82B0002101910193019A76
:1025540081180191019B188880B202B0704700BFB6
:10256400006C0040014B1868C0B27047A0860D4251
:10257400034B998E88B240F001029A86704700BFDF
:10258400006C0040014B1868C0B27047A4860D422D
:10259400034B998E88B240F002029A86704700BFBE
:1025A400006C004001420CBF00200120704708B5B8
:1025B4000B4B984207D14FF00070012101F05AFFF4
:1025C4004FF0007006E04FF08060012101F052FFEF
:1025D4004FF080600021BDE8084001F04BBF00BF10
:1025E40000640040026822F002030360026842F0C3
:1025F400010303604FF480334268D20701D4013BE6
:10260400FAD1436813F0010358D08A790368012A88
:102614000CBF43F0800323F080030360CA7903688E
:10262400012A0CBF43F0400323F0400303600A7AFD
:102634000368012A0CBF43F0200323F02003036046
:102644004A7A0368012A0CBF43F0100323F01003F5
:1026540003608A7A0368012A0CBF43F0080323F05D
:1026640008030360CA7A0368012A0CBF43F0040319
:1026740023F0040303608A7891F803C093070A796E
:1026840043EA0C6343EA024391F805C00A8843EA2B
:102694000C5C511E4CEA0103C36102684FF48033A1
:1026A40022F0010101604168CA0701D5013BFAD15A
:1026B400436803F0010080F001007047184670473A
:1026C40070B5837A01229A40374BD3F8004244F024
:1026D4000101C3F80012D3F81C42D1430C40C3F8E3
:1026E4001C42047BC4B9D3F80C42B0F802C001EA1E
:1026F4000406C3F80C62847AC68848344CEA06455A
:1027040043F83450857AB0F804C00488274BED00B0
:1027140044EA0C44EB185C60037B012B19D1224B77
:10272400B0F802C0D3F80C4242EA0406C3F80C62C3
:10273400847A068848344CEA064543F83450857A4E
:10274400B0F804C0C488194BED0044EA0C44EB18FB
:102754005C60C47A144B1CB9D3F804420C4002E008
:10276400D3F804421443C3F8044204890E4B1CB941
:10277400D3F81442214004E0012C04D1D3F81412FC
:102784001143C3F81412407B012805D1064BD3F83A
:102794001C120A43C3F81C22034BD3F8002222F074
:1027A4000100C3F8000270BD0064004040660040B0
:1027B40000238371C371037243728372C372837083
:1027C400C370032202210123027141710380704707
:1027D4000D4BD3F8002242F00101C3F80012D3F8E4
:1027E400002222F47C5C2CF00E01C3F80012D3F812
:1027F400002242EA0021C3F80012D3F8000220F0BC
:102804000102C3F8002270470064004043690AB122
:10281400194301E023EA010141617047826870B500
:102824005201034607D48268120106D48068C000AE
:1028340050D5022002E0002000E0012000F118063B
:1028440032019D5805F001049C500C7A9D582CB916
:102854000C6891F809C04CEA445405E04E6844EA17
:10286400C60646EA05044D7A25439D508E7A00F14A
:10287400180406F00F0224018A721A19556825F00B
:102884000F065660556891F80AC04CEA0506566072
:102894004A7B91F80EC0CE7A150445EA0C650A7B92
:1028A40045EA060C4CEA022603EB0012C2F88861E2
:1028B4004D7C8E7C2D0445EA0665CE7B91F810C0D4
:1028C400354345EA0C21C2F88C111A5942F0010132
:1028D400195170BD042070BD012911D002D3022901
:1028E4002ED11CE082688368806803F0020C02F039
:1028F40001014CEA810200F0806342EA93631CE028
:102904008268816802F480739A09836801F4007113
:1029140042EA112103F0006041EAD0630DE08268CD
:10292400816802F480339A0B836801F4003142EA2F
:10293400114C03F080504CEA10730248C05C70479D
:102944000023FAE700790008012907D002D30229FD
:102954000DD108E0836843F0800302E0816841F40C
:10296400004383607047836843F4000282607047C9
:10297400202309B9C36070470361704709B9C0686F
:1029840002E0012903D1006900F003007047002030
:10299400704730B501F11B042301C55805F0040547
:1029A400EDB21572C35815B95B0D136001E0DB0875
:1029B400536024010319045904F0020C82F809C07D
:1029C4005C6804F00F0C82F80AC05C68230AD374B4
:1029D40000EB0113D3F8B841D472D3F8B841240AF8
:1029E4001473D3F8B841240C5473D3F8B841240EAB
:1029F4009473D3F8BC41D473D3F8BC41240A14743F
:102A0400D3F8BC41240C5474D3F8BC311B0E93741A
:102A1400BDE83040FFF7ACBF036811B143F4803325
:102A240001E023F4803303607047036823F003025A
:102A340042F002010160436803F00302A2F10201C3
:102A4400484240EB01007047016821F00203036033
:102A54004FF480334268920701D5013BFAD14368B1
:102A640003F00200D0F1010038BF002070478369F1
:102A740019420CBF002001207047826922EA010339
:102A84008361704720292FD00CD8062920D004D880
:102A9400042925D005293BD118E007291CD0082991
:102AA40036D11FE0B1F5007F25D005D840291DD0CF
:102AB400B1F5807F2CD11BE0B1F5803F24D0B1F576
:102AC400003F1ED0B1F5806F22D117E0806810E07E
:102AD40080684FF4807119E080684FF4803115E00C
:102AE400C06812E0C0680DE000690EE0006909E00A
:102AF400806901210AE08069022107E080690421DC
:102B040004E04068102101E040680821FFF74ABD55
:102B14000020704720292FD00CD8062920D004D8B3
:102B2400042924D005293ED118E007291CD00829FE
:102B340039D11EE0B1F5007F27D005D840291DD03A
:102B4400B1F5807F2FD11CE0B1F5803F26D0B1F5DF
:102B5400003F26D0B1F5806F25D11AE0012301E0B2
:102B64004FF48073836070474FF48033FAE708238F
:102B740000E01023C3607047082300E010230361C2
:102B84007047836923F0010306E0816921F00203A1
:102B940002E0826922F004038361704708234360E2
:102BA4007047102141607047014B01229A607047C1
:102BB40000300240014B1860186870470030024032
:102BC40010B5002303E050F8044B013314608B422A
:102BD400014AF8D1106810BD00300240014B18685A
:102BE400704700BF00300240014B1871704700BFAE
:102BF40000300240014B1879704700BF003002409A
:102C0400012108B54FF0005001F034FC4FF00050A2
:102C14000021BDE8084001F02DBC30B540F6FE743B
:102C240014FA00F2084B1D6825EA020291E830000C
:102C340025438C682543CC6845EA0401814042EA77
:102C44000100186030BD00BF007400400023036021
:102C540043608360C3607047064B012219B1824010
:102C640019680A4304E012FA00F0196821EA000224
:102C74001A60704700740040074B4FF4805219B13A
:102C8400824019680A4304E012FA00F0196821EA44
:102C940000021A60704700BF00740040074B00092F
:102CA400012219B1824059680A4304E012FA00F083
:102CB400596821EA00025A60704700BF007400405E
:102CC400044B5A6810B142F0030201E022F00302FF
:102CD4005A60704700740040054B814012B11A6875
:102CE400114302E0186820EA01011960704700BF2F
:102CF40000740040064B82B0002201920193019AB5
:102D0400083210180190019B196002B0704700BF8F
:102D140000740040064B82B0002201920193019A94
:102D2400143210180190019B196002B0704700BF63
:102D3400007400400828044B0CBF42EA012142EA17
:102D44000141C150704700BF20740040074B82B05E
:102D5400002101910193019A2C3202EB900101911F
:102D6400019B186880B202B0704700BF0074004035
:102D7400014B1868000C7047002004E0024B1968EE
:102D84000805000D704700BF002004E0044B5A689A
:102D940009B1104301E022EA00005860704700BF07
:102DA400002004E00268002322F0010101600360B6
:102DB40043608360C3602E4B984229D02D4B9842C8
:102DC40030D02D4B984237D02C4B98423ED02C4BD0
:102DD400984206D153F8541C41F4702043F8540C23
:102DE4007047284B984206D153F8680C40F470029F
:102DF40043F8682C7047244B984206D153F87C2C36
:102E040042F0706143F87C1C7047204B984206D115
:102E140053F8041C41F00F0043F8040C70471C4B9A
:102E2400984206D153F8180C40F0F00243F8182CDD
:102E34007047184B984206D153F82C2C42F4706119
:102E440043F82C1C7047144B984206D153F8401C8D
:102E540041F4704043F8400C7047104B984205D140
:102E640053F8540C40F4702243F8542C704700BFBC
:102E7400080002401C0002403000024044000240AE
:102E8400580002406C0002408000024008040240E6
:102E94001C0402403004024044040240580402402E
:102EA40002680B6A10B522F4FE448A6824F0F00C20
:102EB4000C6913434A6923438C691A43CB6922433F
:102EC4004C6A134343EA04028C6A42EA040343EA69
:102ED4000C02CB68026043600A684B688260C3607E
:102EE40010BD0023036043608360C36003614361DA
:102EF4008361C3610362436283627047036811B1F3
:102F040043F0010301E023F0010303607047036809
:102F14000AB1194301E023EA0101016070474068E6
:102F240080B27047C1004CBF034904490B68034297
:102F34000CBF002001207047000402400000024042
:102F4400C2004CBF014B024B586070470004024062
:102F540000000240C1004CBF034B044B1B680342FA
:102F64000CBF002001207047000402400000024012
:102F7400C3004CBF014B024B586070470004024031
:102F840000000240044B054A002018605860986015
:102F9400D8605A61704700BF00040140FFFF0F0072
:102FA400837910B50168002B2AD01B4BCA431C68D7
:102FB40090F804C014401C605C6822405A600CEB1A
:102FC400030214682143116002689C68D1430C40D9
:102FD4009C60DC682140D9604179102908D1996846
:102FE40041EA02009860D96841EA0200D86010BD45
:102FF40001F1804C0CF58233186802431A6010BD4D
:1030040090F804C00CF1804000F582331A6822EA7B
:103014000101196010BD00BF0004014000230C220F
:1030240003600371427183717047034B196940EA6D
:1030340001021A61704700BF0004014003494B6953
:1030440018420CBF00200120704700BF000401405B
:10305400014B5861704700BF0004014005490A68EC
:103064004B69034004D010420CBF0020012070477C
:103074001846704700040140014B5861704700BF77
:1030840000040140034B1A6802F0380140EA0102CF
:103094001A60704700200240044B196821F00802AE
:1030A4001A60196840EA01021A6070470020024061
:1030B400044B196821F010021A60196840EA0102F1
:1030C4001A60704700200240024B0348034A5860CC
:1030D4005A6070470020024023016745AB89EFCD59
:1030E400024B186940F080021A61704700200240C8
:1030F400014BD8698008704700200240014B186AD0
:10310400704700BF00200240024BD869C0F3400062
:10311400704700BF00200240024B1868C0F3401003
:10312400704700BF00200240044B1A6909B11043E4
:1031340001E022EA00001861704700BF002002404D
:103144000128064B03D1D86900F001007047DB6801
:1031540018420CBF00200120704700BF002002402D
:10316400014BD860704700BF00200240094BDA6869
:10317400D1070AD4D868420709D4DB6803F01001E8
:1031840000290CBF0420032070470120704702204F
:10319400704700BF0020024013B50446FFF7E6FF66
:1031A4000CE000230193FF2301E00198431E0193E7
:1031B40001990029F9D1FFF7D9FF013C012803D176
:1031C400002CEED1052002E0002C08BF05201CBD18
:1031D400F8B5114E114B044611480D46B0600F204E
:1031E400B3601746FFF7D8FF042814D1336944F0BD
:1031F400F8040C49254343F010022F4332610F2099
:103204004F80FFF7C9FF052805D0326941F6EF7CEE
:1032140002EA0C013161F8BD00200240AB89EFCD18
:103224002301674500F8FF1F38B5054640F6FF70D7
:10323400FFF7B2FF042838D11C4C1D481D4BA06079
:10324400A360226942F020012161206940F040031B
:10325400236140F6FF70FFF79FFF04281DD1216909
:1032640041F6DF7001EA000323612269124B42F048
:10327400100121610DB1002200E0A5221A8040F660
:10328400FF70FFF789FF05280FD0084A41F6EF7C4D
:10329400116901EA0C03136138BD052805D02369BF
:1032A40041F6DF7E03EA0E02226138BD00200240AF
:1032B40023016745AB89EFCD00F8FF1F10B5044625
:1032C4000F20FFF769FF04283ED1204B20482149F5
:1032D40098609960E4431869E2B240F01001FF2A53
:1032E400196106D01C4B0F201A81FFF755FF0428E3
:1032F4001FD104F47F42130AFF2B06D016490F2076
:103304004B81FFF749FF042813D104F47F00030C19
:10331400FF2B06D0104A0F209381FFF73DFF0428AE
:1033240007D1240EFF2C07D00B4B0F20DC81FFF7B5
:1033340033FF052801D110BD0420044A41F6EF7C77
:10334400136903EA0C01116110BD00BF00200240A3
:1033540023016745AB89EFCD00F8FF1F70B5044624
:103364000F200E46FFF718FF042814D10A4D0B4A0C
:103374000B49AA60A960286940F010032B610F2053
:103384002680FFF709FF052805D02A6941F6EF7169
:1033940002EA01032B6170BD00200240230167454E
:1033A400AB89EFCD70B504460F200E46FFF7F4FE4F
:1033B400042810D1084D286940F001032B610F2027
:1033C4002680FFF7E9FE052805D02A6941F6FE7C30
:1033D40002EA0C01296170BD0020024073B500238C
:1033E40004460F200E460193FFF7D6FE04281AD197
:1033F4000D4D296941F0010028610F202680FFF757
:10340400CBFE042807D102340194019A360C1680AD
:103414000F20FFF7C1FE052805D02A6941F6FE7189
:1034240002EA01032B617CBD0020024010B540F686
:10343400FF70FFF7B1FE042833D11A4C1A481B4B16
:10344400A060A360226942F020012161206940F05C
:103454004003236140F6FF70FFF79EFE042818D155
:10346400226941F6DF7C02EA0C0121612069104ADD
:1034740040F01003A52123610F201180FFF78CFE7B
:1034840005280ED0226941F6EF7102EA0103236197
:1034940010BD052805D0226941F6EF7102EA010347
:1034A400236110BD0020024023016745AB89EFCDA5
:1034B40000F8FF1F10B540F6FF70FFF76DFE0428FB
:1034C40014D10B4C226942F004012161206940F0BF
:1034D4004003236140F6FF70FFF75EFE052805D028
:1034E400226941F6FB7102EA0103236110BD00BFAA
:1034F4000020024038B5054640F6FF70FFF74CFE49
:10350400042815D10B4C226942F002012161656146
:10351400206940F04003236140F6FF70FFF73CFE52
:10352400052805D0226941F6FD7102EA01032361F1
:1035340038BD00BF002002404FF0204318B943F2C9
:10354400DB021A6003E043F2D20143F820106FF06B
:1035540070434FF02042411C42F82130014A42F8A6
:1035640020307047040100A010280CBF064B074B05
:103574004FF0FC324FF018014FF0400019605860D2
:103584009A60DA60704700BF600000A0800000A06D
:10359400054B4FF0FC3218210020196058609A60E6
:1035A400DA601A61704700BFA00000A070B54368DC
:1035B4008468C66844EA0305036945EA060C46695B
:1035C4004CEA0305836945EA060CC6694CEA03051F
:1035D400036A45EA060C466A4CEA0305816AC36A33
:1035E40045EA060C02684CEA010646EA0305082C83
:1035F4004FF0204343F8225005D153F8225045F0B0
:10360400400443F82240036B541C9E691D68B1F5C5
:10361400804F46EA050C5E689D684CEA061CDE682D
:103624004CEA052545EA064C1E695D694CEA065CD0
:103634004CEA05654FF0204343F8245010D1436B06
:10364400986919680143586841EA001C9868196927
:103654004CEA002C58694CEA015141EA006101E04E
:103664006FF07041014B43F8221070BD040100A0BB
:103674004268836830B542EA0301C568036941F0D2
:10368400080444EA05024169856942EA030C4CEAEC
:10369400412444EA4534C569AA686B6811042A6860
:1036A40041EA032CEB684CEA020141EA0361036A34
:1036B4009A685D68120442EA052C1D68DA6803689A
:1036C4004CEA050C102B0CBF034B044B4CEA026272
:1036D4001C609960DA6030BD600000A0800000A02A
:1036E40002684168836810B542F0100444EA412C32
:1036F4004CEA4332144B1A60C26891685468090456
:1037040041EA0421146841EA040CD4684CEA0462D6
:103714009A60026991685468090441EA04211468B2
:10372400D26841EA040C4CEA0262DA6042699168A8
:103734005068090441EA002C10684CEA0001D06882
:1037440041EA00621A6110BDA00000A0022110B578
:1037540041604FF48052016B4FF4005402624462A2
:1037640000230F22FF2403608360C360036143616D
:103774008361C3618362C3620A604A608C60CA6009
:103784000A614A618B61416B0A604A608C60CA605D
:103794000A614A618B6110BD002242608260C2608E
:1037A400026142618261C169026A10230360FC23E1
:1037B4000B604B608B60CB60136053609360D3608D
:1037C4007047C2680023036043608360FC2301697F
:1037D400136053609360D36042690B604B608B60ED
:1037E400CB60136053609360D36070474FF0204305
:1037F40021B153F8202042F0010203E053F82010D5
:10380400024A0A4043F82020704700BFFEFF0F0021
:1038140041B110280CBF084B084B186840F0040253
:103824001A60704710280CBF034A044A0448116800
:1038340001EA000313607047600000A0800000A04C
:10384400FBFF0F00054B18B11A6842F0040203E0B5
:103854001968034801EA00021A607047A00000A03A
:10386400FBFF0F0041B110280CBF084B084B186830
:1038740040F040021A60704710280CBF034A044A03
:103884000448116801EA000313607047600000A057
:10389400800000A0BFFF0F00102802D1024B58691E
:1038A4007047024840697047600000A0800000A093
:1038B4005AB1102801D10E4B04E0B0F5807F0CBF43
:1038C4000C4B0D4B5A6811430FE0102804D1084BE0
:1038D400586820EA010108E0B0F5807F0CBF054B71
:1038E400054B6FEA01015A6811405960704700BFE7
:1038F400600000A0800000A0A00000A0102801D15A
:10390400064B04E0B0F5807F0CBF054B054B5B68AC
:103914000B420CBF00200120704700BF600000A0D4
:10392400800000A0A00000A0102804D1074B5A6812
:1039340022EA010108E0B0F5807F0CBF044B054B7F
:103944006FEA01015868014059607047600000A0A7
:10395400800000A0A00000A0102801D1084B04E0C2
:10396400B0F5807F0CBF074B074B5B6813EA01007F
:1039740004D013EAD1010CBF00200120704700BF1E
:10398400600000A0800000A0A00000A0102804D1C6
:10399400084B5A6822EAD10109E0B0F5807F0CBFD8
:1039A400054B064B4FEAD101586820EA01015960E2
:1039B400704700BF600000A0800000A0A00000A02D
:1039C40008B5234B984205D10420012100F046FD9F
:1039D400042036E01F49884205D10820012100F067
:1039E4003DFD08202DE01C4A904205D11020012104
:1039F40000F034FD102024E0184B984205D120201B
:103A0400012100F02BFD20201BE01549884205D13F
:103A14004020012100F022FD402012E0114A904292
:103A240005D18020012100F019FD802009E00E4B12
:103A340098420BD14FF48070012100F00FFD4FF438
:103A440080700021BDE8084000F008BD08BD00BF3B
:103A540000080140000C0140001001400014014026
:103A640000180140001C01400020014001200146D3
:103A740008B500F0F3FC01200021BDE8084000F087
:103A8400EDBCF0B5CE78F30606F00F0248BF8B7894
:103A94000E8848BF1A4316F0FF0F1DD00468002398
:103AA40001279F4007EA0605BD4211D19F004FF050
:103AB4000F0C0CFA07FC12FA07F724EA0C043C4337
:103AC400CF78282F01D1456102E0482F08BF056156
:103AD4000133082BE4D104600E88FF2E1FD94468FB
:103AE400002303F108050127AF4007EA0605BD429C
:103AF40011D19F004FF00F0C0CFA07FC12FA07F7D4
:103B040024EA0C043C43CF78282F01D1456102E01C
:103B1400482F08BF05610133082BE2D14460F0BD92
:103B24004FF0FF320221042302808170C37070477A
:103B3400836819420CBF002001207047806880B25E
:103B44007047C36819420CBF002001207047C06849
:103B540080B2704701617047416170470AB10161E9
:103B6400704741617047C160704741F4803383619D
:103B740081618361836983697047064A10B514685B
:103B84004FF6807304EA030C41EA001141EA0C0386
:103B9400136010BD00000140014B1860704700BF66
:103BA4001C00204230B5144A00F44015B5F5401FFE
:103BB400536884B206D1556823F0706325F07065AC
:103BC400556010E0C20206D500F470252A0C0325C6
:103BD40015FA02F203E0420D120114FA02F223EA8A
:103BE400020343F0706319B1410D0801844023437B
:103BF400014A536030BD00BF0000014001F00303DF
:103C040030B59A000F24944010FA02F2074B8D0845
:103C1400A91C53F8215025EA040443F8214053F821
:103C24002140144343F8214030BD00BF000001404F
:103C3400014B1860704700BFDC00204208B50B4BF5
:103C4400984207D14FF40010012100F013FC4FF407
:103C5400001006E04FF48000012100F00BFC4FF44B
:103C640080000021BDE8084000F004BC005400407E
:103C7400F0B58388044623F03F02100487B0060C95
:103C840001A80D4600F052FB2E490398B0FBF1F752
:103C9400BFB23E43A680B4F800C02CF001031A045E
:103CA400110C294B2A6821809A4209D85200B0FB92
:103CB400F2F18BB201372784032B98BF042322E04F
:103CC400B5F806E04BF6FF7CE64505D102EB42036E
:103CD400B0FBF3F083B206E019235343B0FBF3F2D5
:103CE40091B241F480431905080D08B943F001036A
:103CF4004FF4967257434FF47A7E97FBFEF70137E1
:103D040043F400432784A383B4F800E01FFA8EFC35
:103D14004CF001012180208820F4806222F00A0303
:103D24006889AA8819040B0C40EA020E43EA0E01C2
:103D34002889AB89218040EA030CA4F808C007B0A5
:103D4400F0BD00BF40420F00A086010041F288335D
:103D5400002103604BF6FF724FF480438180C280E0
:103D64000181418183817047038819B19BB243F07B
:103D7400010303E023F0010211040B0C03807047DC
:103D8400838819B19BB243F4006303E023F4006217
:103D940011040B0C83807047838819B19BB243F4E0
:103DA400805303E023F4805211040B0C838070478A
:103DB400038819B19BB243F4807303E023F4807247
:103DC40011040B0C03807047038819B19BB243F4B0
:103DD400007303E023F4007211040B0C038070479A
:103DE400038819B19BB243F4806303E023F4806237
:103DF40011040B0C03807047B0F80CC001F0FE01F5
:103E04002CF0FE0213041A0C41EA0203838170476A
:103E1400838919B19BB243F0010303E023F001024B
:103E240011040B0C83817047038819B19BB243F0D2
:103E3400400303E023F0400211040B0C038070479D
:103E440083889BB20AB1194301E023EA010181800E
:103E5400704701827047008AC0B2704712B141F0C6
:103E6400010101E001F0FE010182704782B00023EC
:103E740001930190019A89180191019B188880B2DD
:103E840002B07047038821B16FEA43436FEA53439A
:103E940001E059044B0C03807047B1F5005F0388BF
:103EA40003D19BB243F4005303E023F40052110402
:103EB4000B0C03807047038819B19BB243F4805301
:103EC40003E023F4805211040B0C03807047B1F516
:103ED400006F038803D19BB243F4006303E023F42F
:103EE400006211040B0C03807047038819B19BB264
:103EF40043F0200303E023F0200211040B0C0380A1
:103F04007047018B88B2000A7047038819B19BB2CD
:103F140043F0100303E023F0100211040B0C0380A0
:103F24007047038819B99BB243F0800303E023F080
:103F3400800211040B0C03807047B1F5804F838B12
:103F440004D023F480410B041B0C02E09AB242F427
:103F5400804383837047828A018B93B243EA014092
:103F640020F07F407047828A008B93B243EA004C72
:103F74002CF07F42531A584240EB0300704782B042
:103F84000022009201920190080F0090009B21F002
:103F94007F4113B1019B143302E0019B090C1833D8
:103FA40001930198036819420CBF0020012002B05C
:103FB4007047C943818270478388828A9BB290B2DA
:103FC400084006D001F0E06113EA11410CBF002063
:103FD40001207047C9438182704700BF014B1860BC
:103FE400704700BF00300040014B5860704700BF6D
:103FF40000300040014B9860704700BF0030004023
:10400400024B4AF6AA221A60704700BF00300040F3
:10401400024B4CF6CC421A60704700BF003000409F
:104024000349CB6818420CBF00200120704700BF31
:1040340000300040012108B54FF0805000F01AFA1A
:104044004FF080500021BDE8084000F013BA014B46
:104054001860704720000E42014B1860704700BF83
:1040640010000E42034B1A6822F0E00140EA0102FC
:104074001A60704700700040014B1860704700BF21
:10408400A0000E42084B01291A6822F0030C40EAF2
:104094000C021A60054B186840F004021A6001D142
:1040A40030BF704720BF70470070004010ED00E043
:1040B400074B196841F0040018601A6842F00201C5
:1040C4001960044B186840F004021A6030BF70474E
:1040D4000070004010ED00E003494B6818420CBF2B
:1040E40000200120704700BF00700040024B196897
:1040F40041EA80021A60704700700040104B1A6851
:1041040042F00100186059680E4A01EA0200586042
:104114001A6822F0847C2CF480311960186820F429
:1041240080221A60596821F4FE0058601A684FF41E
:104134007F0022F0A051002219609860DA62704773
:10414400001002400000FFF00C4BB0F5803F1968EE
:1041540021F480321A60196821F480221A6003D095
:10416400B0F5802F09D104E01A6842F48030186059
:104174007047186840F4A02119607047001002408D
:10418400034B1A6822F0F80141EAC0021A60704732
:1041940000100240014B1860704700BF000042420B
:1041A400044B5A6822F4741C40EA0C0040EA0102F1
:1041B4005A60704700100240014B1860704700BFFE
:1041C40060004242054AD36A23F4803323F00F0C83
:1041D40040EA0C0040EA0103D36270470010024039
:1041E400034BDA6A22F0F00140EA0102DA62704716
:1041F40000100240034BDA6A22F4706140EA0102C3
:10420400DA62704700100240014B1860704700BF2B
:1042140068004242034BDA6A22F4704140EA010228
:10422400DA62704700100240014B1860704700BF0B
:1042340070004242034B5A6822F0030140EA010233
:104244005A60704700100240024B586800F00C009E
:10425400704700BF00100240034B5A6822F0F0017F
:1042640040EA01025A60704700100240034B5A684A
:1042740022F4E06140EA01025A60704700100240F3
:10428400034B5A6822F4605141EAC0025A607047F5
:1042940000100240044B1A7809B1104301E022EAED
:1042A40000001870704700BF09100240014B1860ED
:1042B400704700BFD8004242034B5A6822F4404181
:1042C40040EA01025A60704700100240014B186036
:1042D400704700BFC4054242014B1860704700BFDD
:1042E400C8054242064B002201281A701A7002D0F7
:1042F400042804D101E01870704705201870704735
:1043040020100240014B1860704700BF80044242F5
:10431400024B196A40EA01021A6270470010024017
:10432400014B1860704700BF3C0442422E4A30B52E
:10433400536803F00C03042B03D0082B03D02B4B3E
:104344002CE02B4B2AE05468526804F470118B0C57
:104354000D2B02F4803201D0023300E0062312B99F
:1043640024494B431AE0204AD46AD16A01F00F0170
:104374000131E40301D41E4A0DE0D56AD26A05F086
:10438400F00425096C1C02F47062194D120AB5FB85
:10439400F4F402326243B2FBF1F14B43124A03607C
:1043A400546804F0F0031909134B0468595C34FA97
:1043B40001F14160546804F4E064240A1C5D31FA9C
:1043C40004F48460546804F46054E40A1C5DE1401D
:1043D400C160526802F4404C03EB9C331A7CB1FB7D
:1043E400F2F3036130BD00BF0010024000127A00F6
:1043F40040787D0100093D002C000020044B5A69DF
:1044040009B1104301E022EA00005861704700BF7F
:1044140000100240044B9A6909B1104301E022EAFA
:1044240000009861704700BF00100240044BDA6935
:1044340009B1104301E022EA0000D861704700BFCF
:1044440000100240044B9A6A09B1104301E022EAC9
:1044540000009862704700BF00100240044BDA6805
:1044640009B1104301E022EA0000D860704700BFA0
:1044740000100240044B1A6909B1104301E022EA1A
:1044840000001861704700BF00100240014B186023
:10449400704700BF40044242014B1860704700BFA0
:1044A4004C004242014B1870704700BF0710024095
:1044B4004309012B074A01D1136803E0022B0CBF07
:1044C400136A536A00F01F0133FA01F000F001008F
:1044D400704700BF0010024007B50023019331204C
:1044E400FFF7E6FF019B5A1C01920199B1F5A06FF9
:1044F40001D00028F3D03120FFF7DAFF003018BFD5
:1045040001200EBD024B586A40F080725A62704717
:104514000010024003498B6818420CBF00200120A0
:10452400704700BF00100240014B1870704700BF75
:104534000A100240044B1A8892B209B1104301E0F8
:1045440022EA00001880704700280040034B998835
:1045540088B240F010029A80704700BF00280040E3
:10456400044AB2F804C02CF010010804030C938030
:10457400704700BF00280040034B998B188B8AB208
:1045840042EA0040704700BF0028004010B50446CE
:10459400FFF7DCFF034B220C1A839C83BDE8104019
:1045A400FFF7DEBF0028004010B50446FFF7CEFF3A
:1045B400044B04F47020020C1A819C81BDE8104065
:1045C400FFF7CEBF0028004010B50446FFF7BEFF3A
:1045D400034B220C1A849C84BDE81040FFF7C0BF33
:1045E40000280040044AB2F810C0918A0CF00F0071
:1045F4008BB243EA00407047002800400248838899
:104604009B06FBD5704700BF00280040064AB2F85D
:1046140004C02CF008010804030C9380024B9A8810
:104624001207FBD5704700BF0028004003498B8860
:1046340018420CBF00200120704700BF0028004032
:10464400044BB3F804C01FFA8CF121EA00029A80EB
:10465400704700BF0028004007498A880B8892B23F
:10466400034006D0104010F0FF0F0CBF00200120C3
:1046740070471846704700BF00280040044BB3F849
:1046840004C01FFA8CF121EA00029A80704700BF2F
:1046940000280040064B074900221A605A609A60BD
:1046A400DA605A629A62DA629963DA63704700BF29
:1046B40000800140FF07C000816810B544680C4ABF
:1046C40044EA010CC168046853684CEA010141EAF8
:1046D400040C046923F4FC4121F0FF034CEA040CAC
:1046E400017D4CEA030C4CEA0103536010BD00BF8A
:1046F4000080014000230375036043608360C3604E
:1047040003617047014B1860704700BFA00030423E
:10471400044B196821F003021A60196840EA010287
:104724001A60704700800140024B186800F00300D3
:10473400704700BF00800140044BDA6B09B110439D
:1047440001E022EA0000D863704700BF0080014006
:10475400014B1860704700BF8C05304210B50B4BFD
:1047640004689C60DA68846822F4FE61426821F07F
:104774000F0C44EA0201C468006941EA040242EAF7
:10478400000141EA0C02DA6010BD00BF0080014064
:104794000023036043608360C36003617047024B7E
:1047A4001869C0B2704700BF00800140044982B05C
:1047B4004018002201920190019B186802B07047D2
:1047C4001480014010B50B4B04685C6242689A6225
:1047D400C4688268D96A44EA020C046942694CEAF2
:1047E400040C21F0F7014CEA020040EA0102DA620B
:1047F40010BD00BF0080014000234FF0FF31016075
:1048040043608360C360036143617047014B186B6D
:10481400704700BF00800140014BD3F8800070470F
:1048240000800140014BC3F88000704700800140C4
:10483400014B986C704700BF00800140014B186029
:10484400704700BFA0053042014B1860704700BF9D
:10485400A4053042014B1860704700BFA8053042E0
:10486400014B1860704700BFAC053042014B186023
:10487400704700BFAC013042014B1860704700BF65
:10488400B001304200F00101024B81F001001860D8
:10489400704700BFB4013042014B1860704700BF3D
:1048A400B801304203494B6B18420CBF0020012071
:1048B400704700BF00800140014B9863704700BF00
:1048C4000080014003494B6B18420CBF00200120BB
:1048D400704700BF00800140014B9863704700BFE0
:1048E4000080014008B5154B98420BD101214FF4CB
:1048F4008050FFF7B3FD4FF480500021BDE808401D
:10490400FFF7ACBD0E49884207D14FF48040012126
:10491400FFF7B0FD4FF4804009E00A4A90420BD102
:104924004FF400400121FFF7A5FD4FF400400021A2
:10493400BDE80840FFF79EBD08BD00BF0030014040
:1049440000380040003C00400B88B1F802C010B5AC
:104954008C884CEA030CCB884CEA040C0C894CEA96
:104964000303B1F80AC023438C8943EA0C0C028880
:104974004CEA0403CC8902F4415243EA040C42EAAF
:104984000C030380B0F81CC02CF4006213041A0C4E
:104994000B8A8283038210BDF0B5868B87B026F420
:1049A4007A6222F01F031E04320C022382830384E2
:1049B4000B890446022B0D46868B47D0334B8F88D8
:1049C400984214BF4FF480214FF40031304B002F34
:1049D40014BF02270127D86A014217D0D86A00F40D
:1049E40070410B0B9A1F082A01D8023302E00F2BE7
:1049F40008BF14232649CA6A02F0F0000109254AB7
:104A0400481CB2FBF0F14A00534303E001A8FFF74E
:104A14008DFC019BE8884FF00A02B0F5007F01D1BC
:104A24001B0A02E07F01B3FBF7F35343B5F808C058
:104A34000A22B3FBFCF0431D99B2B1FBF2F000F083
:104A4400010143080A029BB292B200E00022991EBF
:104A540088B2FE2828BF002228BF022343EA020CA2
:104A64002888EB8846EA00024CEA03016B8821841B
:104A740042F4006CA9886A894CEA030040EA010305
:104A840043EA0201A18307B0F0BD00BF0038004033
:104A94000010024040787D010021072301804180FD
:104AA4008180C180018141818181C18103827047FC
:104AB40000230222038043808380C38002814381D8
:104AC4007047038819B19BB243F0400303E023F01D
:104AD400400211040B0C03807047838B19B19BB205
:104AE40043F4806303E023F4806211040B0C83839A
:104AF4007047090901238B409BB21AB181888AB29D
:104B0400134304E082881FFA82FC2CEA03038380A7
:104B1400704783889BB20AB1194301E023EA01017B
:104B24008180704781817047808980B270474FF6D9
:104B3400FF639942038803D099B241F4807303E080
:104B440023F480731A04130C03807047838819B10B
:104B54009BB243F0040303E023F0040211040B0CA2
:104B640083807047028822F400631A04130C0380C4
:104B7400B0F800C01FFA8CF241EA020303807047C8
:104B8400028891B241F4805303807047038819B1BD
:104B94009BB243F4005303E023F4005211040B0CC2
:104BA40003807047012902D0008B80B27047818A4C
:104BB40088B27047008A80B27047B1F5804F03888D
:104BC40003D19BB243F4804303E023F480421104F5
:104BD4000B0C03807047038919420CBF002001208D
:104BE4007047C9430181704710B58488038901F077
:104BF4000F0298B2012313FA02F21040A4B206D0B5
:104C0400080913FA00F10C420CBF0020012010BD6A
:104C140001F00F03012212FA03F1CB430381704721
:104C2400B0F820C030B52CF001052C04250C058407
:104C3400048BB0F820C024F0F3052C04250C42EAC0
:104C440005042CF0020544EA03142B041A0C42F068
:104C540001050D430483058430BDB0F820C030B590
:104C64002CF010052C04250C0584048BB0F820C00E
:104C740024F440752C05250D45EA02242CF020056A
:104C840044EA03342B041A0C42F0100545EA0115DA
:104C94000483058430BD08B52A4B984207D14FF4EC
:104CA40000600121FFF7DAFB4FF4006043E0B0F14C
:104CB400804F05D101200146FFF7DCFB012007E00E
:104CC4002149884209D102200121FFF7D3FB0220A8
:104CD4000021BDE80840FFF7CDBB1C4A904205D136
:104CE40004200121FFF7C6FB0420F1E7184B98428A
:104CF40005D108200121FFF7BDFB0820E8E715498D
:104D0400884205D110200121FFF7B4FB1020DFE712
:104D1400114A904205D120200121FFF7ABFB20204E
:104D2400D6E70E4B98420BD14FF400500121FFF708
:104D340095FB4FF400500021BDE80840FFF78EBBFF
:104D440008BD00BF002C01400004004000080040E2
:104D5400000C0040001000400014004000340140EA
:104D64000388B1F806C003F08F02028003884A88E2
:104D740043EA0C0C4CEA02030380084BB1F804C06C
:104D84000A889842A0F82CC0028502D0044A9042B6
:104D940001D1097A0186012383827047002C0140E6
:104DA40000340140B0F820C070B52CF001052E0489
:104DB400340C0484068C8488028BB1F800C022F081
:104DC40070031D0426F002031E042A0C330C0D8903
:104DD4004E8842EA0C0246EA050C1FFA8CF52B4376
:104DE400134DB1F806C0A842A0F834C002D0114D4A
:104DF400A84218D14FF6F77503EA050C4B894CEA23
:104E04000305B1F804C04FF6FB732B4043EA0C03CF
:104E1400B1F80EC0898947F6FF4525404CEA0104E4
:104E2400A1B241EA050484800283038470BD00BFFB
:104E3400002C01400034014030B5058C25F01002EF
:104E440013041C0C0484B0F820C08488058B25F45A
:104E5400E04213040D881A0C2CF0200342EA0522C8
:104E6400B1F808C01D042B0C4D8843EA0C1343EA27
:104E74000513134DB1F806C0A842A0F838C002D0FB
:104E8400104DA84217D14FF67F7503EA050C4B89E4
:104E94004CEA0315B1F804C04FF6BF732B4047F238
:104EA400FF3543EA0C1304EA050C8C89C9894CEAE2
:104EB400840545EA810484800283038430BD00BFF5
:104EC400002C01400034014030B5058C25F480727B
:104ED40013041C0C0484B0F820C08488858B25F04E
:104EE400700213040D881A0C2CF400732A43B1F8D1
:104EF40008C01D042B0C4D8843EA0C2343EA052308
:104F0400124DB1F806C0A842A0F83CC002D0104D22
:104F1400A84217D14FF2FF7503EA050C4B894CEAFE
:104F24000325B1F804C04FF6FF332B4044F6FF7558
:104F340043EA0C2304EA050C8C89C9894CEA04155C
:104F440045EA011484808283038430BD002C01402F
:104F540000340140B0F820C030B52CF48052150460
:104F64002C0C0484B0F820C08488838B23F4E042A2
:104F740015040B882A0C2CF4005542EA03222B0456
:104F84000D891B0C43EA0533CD88B1F802C0A0F8A3
:104F94004050084D43EA0C33A84202D0064DA842C3
:104FA40004D1A4048989A40C44EA811484808283F2
:104FB400038430BD002C0140003401400B88B1F85B
:104FC40002C08A884CEA030CCB884CEA020C0A899A
:104FD4004CEA0303B1F80AC013438A8943EA0C0C70
:104FE4004CEA0203A0F84430704700234FF0FF312D
:104FF40081800380C3804380037270470023038051
:1050040043808380C380038143818381C38170474C
:1050140000230122038043808280C3800381704780
:105024000023038043808380C38003814381838181
:105034007047038819B19BB243F0010303E023F0E6
:10504400010291058B0D03807047B0F8443021B103
:105054006FEA43436FEA534301E059044B0CA0F851
:105064004430704783899BB20AB1194301E023EAB3
:10507400010181817047818270470A43A0F848206A
:10508400704783899BB20AB1194301E023EA010105
:1050940081817047B0F808C02CF0070211040B0C92
:1050A4000381704710B504895FFA84FC41EA0C015E
:1050B40042EA010444EA0324048110BD10B5044605
:1050C400FFF7F0FF218988B240F48043238110BDAB
:1050D40010B50446FFF7E6FFB4F808C02CF07702D9
:1050E4001104080C40F07703238110BD01858282EE
:1050F4007047B0F800C02CF0700293059A0D41EA95
:10510400020303807047B0F808C02CF07002130447
:105114001A0C41EA02030381704738B50D46114663
:105124000122602D044602D1FFF797FD01E0FFF74D
:1051340077FD20462946FFF7E6FF218988B240F033
:105144000703238138BD10B50446FFF7DCFF21892E
:1051540088B240F00703238110BD70B50489058B24
:1051640024F00706340425F4407626F00305B0F84D
:1051740020C02E04350C45F480762CF022052D0435
:105184002D0C240C1543214346F0010645EA031572
:1051940001810683058470BDB0F818C02CF070023C
:1051A40013041A0C41EA020303837047B0F818C0D1
:1051B4002CF4E04213041A0C42EA012303837047DF
:1051C400B0F81CC02CF0700213041A0C41EA02035C
:1051D40083837047B0F81CC02CF4E04213041A0C0B
:1051E40042EA012383837047038819B19BB243F0D9
:1051F400800303E023F0800291058B0D0380704748
:10520400838819B19BB243F0040303E023F0040242
:1052140011040B0C83807047838819B19BB243F04F
:10522400080303E023F0080211040B0C8380704789
:10523400838819B19BB243F0010303E023F0010218
:1052440011040B0C83807047B0F818C02CF00802CE
:1052540013041A0C41EA020303837047B0F818C020
:105264002CF4006213041A0C42EA012303837047EE
:10527400B0F81CC02CF0080213041A0C41EA020313
:1052840083837047B0F81CC02CF4006213041A0C1A
:1052940042EA012383837047B0F818C02CF004025B
:1052A40013041A0C41EA020303837047B0F818C0D0
:1052B4002CF4806213041A0C42EA0123038370471E
:1052C400B0F81CC02CF0040213041A0C41EA0203C7
:1052D40083837047B0F81CC02CF4806213041A0C4A
:1052E40042EA012383837047B0F818C02CF080028F
:1052F40013041A0C41EA020303837047028B53041C
:105304005A0C42EA012303837047B0F81CC02CF006
:10531400800213041A0C41EA020383837047828BD0
:1053240053045A0C42EA012383837047B0F820C027
:105334002CF0020213041A0C41EA0203038470479E
:10534400B0F820C02CF0080213041A0C41EA02033E
:1053540003847047B0F820C02CF0200213041A0C08
:1053640042EA011303847047B0F820C02CF0800295
:1053740013041A0C42EA011303847047B0F820C0E6
:105384002CF4007213041A0C42EA012303847047BC
:10539400B0F820C02CF4006213041A0C42EA012372
:1053A40003847047B0F820C02CF4005213041A0C84
:1053B40042EA01330384704701238B4012FA01F15E
:1053C40010B5048CA4B224EA03030384B0F820C00B
:1053D40041EA0C03038410BD04238B4012FA01F14B
:1053E40010B5048CA4B224EA03030384B0F820C0EB
:1053F40041EA0C03038410BD30B501248C40058CB4
:1054040000F11803ADB225EA0404048409B10829A3
:1054140008D14908CC584FF68F7C04EA0C00C850D8
:10542400C8580BE00C1FA1B24908CC5848F6FF7CC1
:1054340004EA0C00C8501202C85892B20243CA507F
:1054440030BD038819B19BB243F0020303E023F09B
:10545400020291058B0D03807047038819B19BB23A
:1054640043F0040303E023F0040291058B0D038051
:105474007047838819B19BB243F0800303E023F0A3
:10548400800211040B0C83807047028822F0080309
:105494009A05930D0380B0F800C01FFA8CF241EA1C
:1054A400020303807047828822F070031A04130CED
:1054B4008380B0F804C01FFA8CF241EA02038380AF
:1054C4007047028922F007031A04130C0381B0F811
:1054D40008C01FFA8CF241EA020303817047028973
:1054E40022F080031A04130C0381B0F808C01FFAD9
:1054F4008CF241EA020303817047818470478185FD
:105504007047818670470187704781877047A0F88C
:1055140040107047028B22F00C031A04130C03830F
:10552400B0F818C01FFA8CF241EA020303837047F3
:10553400028B22F440631A04130C0383B0F818C0DE
:105544001FFA8CF242EA012303837047F8B50C4634
:10555400A2884988B4F800E0054600290CBF022758
:105564000027012A14BF012602262389BEF1000F59
:1055740011D1FFF755FB2846E188FFF7CBFF2846FA
:10558400394632462389FFF768FBE1882846BDE89F
:10559400F840FFF7CDBFFFF760FB2846E188FFF72F
:1055A400C7FF2846394632462389FFF739FBE1888D
:1055B4002846BDE8F840FFF7ADBF828B22F00C030C
:1055C4001A04130C8383B0F81CC01FFA8CF241EA4E
:1055D400020383837047828B22F440631A04130C02
:1055E4008383B0F81CC01FFA8CF242EA0123838340
:1055F40070470B882DE9F0410D4604464988AA8876
:1056040043B92B89FFF70CFBE9882046BDE8F0413C
:10561400FFF780BF042B08D12B89FFF71EFBE98815
:105624002046BDE8F041FFF783BF082BB5F808809A
:1056340023D1038C23F480764FEA06474FEA1743BD
:105644000384868BB0F820C026F0F3073B041E0CBD
:105654002CF4007346EA08171E04360C46EA012CA3
:10566400BFB21FFA8CF343F480713A4382830184FE
:10567400E988BDE8F041FFF7A0BF068C26F480530B
:105684001F043F0C0784868BB0F820C026F44073B7
:105694001E05360D46EA02222CF4005342EA08386D
:1056A4001A04130C43EA013C1FFA8CF242F48051B1
:1056B400A0F81C800184E988BDE8F041FFF78BBFA6
:1056C4000288D3B20380B0F800C01FFA8CF241EA1A
:1056D400020303807047808E80B27047008F80B2CF
:1056E4007047808F80B27047B0F8400080B2704736
:1056F400808C80B27047008D80B27047038A194253
:105704000CBF002001207047C94301827047038AFF
:10571400828911EA030092B203D011420CBF002027
:1057240001207047C9430182704700BF08B5204B70
:1057340098420BD101214FF48040FEF78FFE4FF4C5
:1057440080400021BDE80840FEF788BE1949884220
:1057540007D14FF400300121FEF78CFE4FF40030E6
:105764001FE0154A904207D14FF480200121FEF733
:1057740081FE4FF4802014E0104B984207D14FF47F
:1057840000200121FEF776FE4FF4002009E00C49C9
:1057940088420BD14FF480100121FEF76BFE4FF4C9
:1057A40080100021BDE80840FEF764BE08BD00BFBC
:1057B400003801400044004000480040004C0040D4
:1057C4000050004030B5B0F810E00D462EF44052C1
:1057D4001304CA881B0C13430382B0F80CC0098954
:1057E4002CF4B05E2EF00C02B5F804C013046A89E0
:1057F40041EA0C0E4EEA020C1FFA8CF11B0C41EA32
:1058040003028281818A87B021F440731A04A98932
:10581400130C43EA010E0446A0F814E001A8FEF7B5
:1058240085FD0E4B29689C420CBF049B039B1922E7
:1058340053438800B3FBF0FC6423BCFBF3F2120176
:10584400110903FB11C001013231B1FBF3F000F087
:105854000F031A43228107B030BD00BF0038014056
:1058640000234FF416510C2201608380C38003810E
:1058740042818381704710B5048A24F47062130452
:105884004C880A881B0C44EA020C8C88CA884CEAAF
:10589400040C4CEA02018AB21343038210BD0023B4
:1058A400038043808380C3807047838919B19BB28E
:1058B40043F4005303E023F4005211040B0C8381DE
:1058C4007047CBB210B55B09012401F01F0114FA33
:1058D40001F1A34201D10C3004E0022B01D11030BC
:1058E40000E0143003680AB1194301E023EA01011E
:1058F400016010BD838A9BB20AB1194301E023EA17
:10590400010181827047028A22F00F031A04130CEA
:105914000382B0F810C01FFA8CF241EA020303823A
:105924007047828922F400631A04130C8381B0F84F
:105934000CC01FFA8CF241EA020383817047838909
:1059440019B19BB243F0020303E023F002021104F5
:105954000B0C83817047028A22F020031A04130C73
:105964000382B0F810C01FFA8CF241EA02030382EA
:105974007047038A19B19BB243F4804303E023F4D4
:10598400804211040B0C03827047CA05D10D81803B
:1059940070478188C805C00D7047828991B241F073
:1059A400010383817047028BD3B20383B0F818C01C
:1059B4001FFA8CF242EA012303837047028B02F43C
:1059C4007F430383B0F818C01FFA8CF241EA020344
:1059D40003837047838A19B19BB243F0200303E029
:1059E40023F0200211040B0C83827047838A19B1BF
:1059F4009BB243F0100303E023F0100211040B0CDC
:105A040083827047838A19B19BB243F0080303E091
:105A140023F0080211040B0C83827047828A22F05F
:105A240004031A04130C8382B0F814C01FFA8CF216
:105A340041EA020383827047838A19B19BB243F01F
:105A4400020303E023F0020211040B0C838270476B
:105A5400038819420CBF002001207047C94301800C
:105A6400704710B5CCB20122640901F01F039A40BB
:105A7400012C01D1838903E0022C0CBF038A838AA1
:105A84009BB20088134082B243B1080A012313FA7F
:105A940000F111420CBF0020012010BD184610BDBA
:105AA4000B0A012212FA03F1CB430380704700BFB3
:105AB400012108B54FF40060FEF7DCFC4FF40060F0
:105AC4000021BDE80840FEF7D5BC044B5A6822F417
